{
  "contractName": "DoubleAuction",
  "abi": [
    {
      "inputs": [],
      "payable": false,
      "stateMutability": "nonpayable",
      "type": "constructor"
    },
    {
      "anonymous": false,
      "inputs": [
        {
          "indexed": true,
          "internalType": "address",
          "name": "tokenOwner",
          "type": "address"
        },
        {
          "indexed": true,
          "internalType": "address",
          "name": "spender",
          "type": "address"
        },
        {
          "indexed": false,
          "internalType": "uint256",
          "name": "tokens",
          "type": "uint256"
        }
      ],
      "name": "Approval",
      "type": "event"
    },
    {
      "anonymous": false,
      "inputs": [
        {
          "indexed": true,
          "internalType": "address",
          "name": "from",
          "type": "address"
        },
        {
          "indexed": true,
          "internalType": "address",
          "name": "to",
          "type": "address"
        },
        {
          "indexed": false,
          "internalType": "uint256",
          "name": "tokens",
          "type": "uint256"
        }
      ],
      "name": "Transfer",
      "type": "event"
    },
    {
      "constant": true,
      "inputs": [
        {
          "internalType": "uint256",
          "name": "",
          "type": "uint256"
        }
      ],
      "name": "Asks",
      "outputs": [
        {
          "internalType": "address",
          "name": "addr",
          "type": "address"
        },
        {
          "internalType": "int256",
          "name": "quantity",
          "type": "int256"
        },
        {
          "internalType": "int256",
          "name": "price",
          "type": "int256"
        }
      ],
      "payable": false,
      "stateMutability": "view",
      "type": "function"
    },
    {
      "constant": true,
      "inputs": [
        {
          "internalType": "uint256",
          "name": "",
          "type": "uint256"
        }
      ],
      "name": "Bids",
      "outputs": [
        {
          "internalType": "address",
          "name": "addr",
          "type": "address"
        },
        {
          "internalType": "int256",
          "name": "quantity",
          "type": "int256"
        },
        {
          "internalType": "int256",
          "name": "price",
          "type": "int256"
        }
      ],
      "payable": false,
      "stateMutability": "view",
      "type": "function"
    },
    {
      "constant": true,
      "inputs": [
        {
          "internalType": "uint256",
          "name": "",
          "type": "uint256"
        }
      ],
      "name": "buyers",
      "outputs": [
        {
          "internalType": "address",
          "name": "addr",
          "type": "address"
        },
        {
          "internalType": "int256",
          "name": "quantity",
          "type": "int256"
        },
        {
          "internalType": "int256",
          "name": "price",
          "type": "int256"
        }
      ],
      "payable": false,
      "stateMutability": "view",
      "type": "function"
    },
    {
      "constant": true,
      "inputs": [],
      "name": "decimals",
      "outputs": [
        {
          "internalType": "uint8",
          "name": "",
          "type": "uint8"
        }
      ],
      "payable": false,
      "stateMutability": "view",
      "type": "function"
    },
    {
      "constant": true,
      "inputs": [],
      "name": "name",
      "outputs": [
        {
          "internalType": "string",
          "name": "",
          "type": "string"
        }
      ],
      "payable": false,
      "stateMutability": "view",
      "type": "function"
    },
    {
      "constant": true,
      "inputs": [
        {
          "internalType": "uint256",
          "name": "",
          "type": "uint256"
        }
      ],
      "name": "results",
      "outputs": [
        {
          "internalType": "address",
          "name": "buyer",
          "type": "address"
        },
        {
          "internalType": "address",
          "name": "seller",
          "type": "address"
        },
        {
          "internalType": "int256",
          "name": "quantity",
          "type": "int256"
        },
        {
          "internalType": "int256",
          "name": "balance",
          "type": "int256"
        }
      ],
      "payable": false,
      "stateMutability": "view",
      "type": "function"
    },
    {
      "constant": true,
      "inputs": [
        {
          "internalType": "uint256",
          "name": "",
          "type": "uint256"
        }
      ],
      "name": "sellers",
      "outputs": [
        {
          "internalType": "address",
          "name": "addr",
          "type": "address"
        },
        {
          "internalType": "int256",
          "name": "quantity",
          "type": "int256"
        },
        {
          "internalType": "int256",
          "name": "price",
          "type": "int256"
        }
      ],
      "payable": false,
      "stateMutability": "view",
      "type": "function"
    },
    {
      "constant": true,
      "inputs": [],
      "name": "symbol",
      "outputs": [
        {
          "internalType": "string",
          "name": "",
          "type": "string"
        }
      ],
      "payable": false,
      "stateMutability": "view",
      "type": "function"
    },
    {
      "constant": false,
      "inputs": [
        {
          "internalType": "string",
          "name": "_role",
          "type": "string"
        },
        {
          "internalType": "int256",
          "name": "_quantity",
          "type": "int256"
        },
        {
          "internalType": "int256",
          "name": "_price",
          "type": "int256"
        }
      ],
      "name": "joinAuction",
      "outputs": [],
      "payable": false,
      "stateMutability": "nonpayable",
      "type": "function"
    },
    {
      "constant": true,
      "inputs": [],
      "name": "getSellerPerference",
      "outputs": [
        {
          "internalType": "int256",
          "name": "quantity",
          "type": "int256"
        },
        {
          "internalType": "int256",
          "name": "price",
          "type": "int256"
        }
      ],
      "payable": false,
      "stateMutability": "view",
      "type": "function"
    },
    {
      "constant": true,
      "inputs": [],
      "name": "getBuyerPerference",
      "outputs": [
        {
          "internalType": "int256",
          "name": "quantity",
          "type": "int256"
        },
        {
          "internalType": "int256",
          "name": "price",
          "type": "int256"
        }
      ],
      "payable": false,
      "stateMutability": "view",
      "type": "function"
    },
    {
      "constant": true,
      "inputs": [],
      "name": "getSellerList",
      "outputs": [
        {
          "components": [
            {
              "internalType": "address",
              "name": "addr",
              "type": "address"
            },
            {
              "internalType": "int256",
              "name": "quantity",
              "type": "int256"
            },
            {
              "internalType": "int256",
              "name": "price",
              "type": "int256"
            }
          ],
          "internalType": "struct Role.Participant[]",
          "name": "",
          "type": "tuple[]"
        }
      ],
      "payable": false,
      "stateMutability": "view",
      "type": "function"
    },
    {
      "constant": false,
      "inputs": [],
      "name": "getSeller",
      "outputs": [
        {
          "components": [
            {
              "internalType": "address",
              "name": "addr",
              "type": "address"
            },
            {
              "internalType": "int256",
              "name": "quantity",
              "type": "int256"
            },
            {
              "internalType": "int256",
              "name": "price",
              "type": "int256"
            }
          ],
          "internalType": "struct Role.Participant",
          "name": "",
          "type": "tuple"
        }
      ],
      "payable": false,
      "stateMutability": "nonpayable",
      "type": "function"
    },
    {
      "constant": true,
      "inputs": [],
      "name": "getBuyerList",
      "outputs": [
        {
          "components": [
            {
              "internalType": "address",
              "name": "addr",
              "type": "address"
            },
            {
              "internalType": "int256",
              "name": "quantity",
              "type": "int256"
            },
            {
              "internalType": "int256",
              "name": "price",
              "type": "int256"
            }
          ],
          "internalType": "struct Role.Participant[]",
          "name": "",
          "type": "tuple[]"
        }
      ],
      "payable": false,
      "stateMutability": "view",
      "type": "function"
    },
    {
      "constant": true,
      "inputs": [],
      "name": "getAsksList",
      "outputs": [
        {
          "components": [
            {
              "internalType": "address",
              "name": "addr",
              "type": "address"
            },
            {
              "internalType": "int256",
              "name": "quantity",
              "type": "int256"
            },
            {
              "internalType": "int256",
              "name": "price",
              "type": "int256"
            }
          ],
          "internalType": "struct Role.Participant[]",
          "name": "",
          "type": "tuple[]"
        }
      ],
      "payable": false,
      "stateMutability": "view",
      "type": "function"
    },
    {
      "constant": true,
      "inputs": [],
      "name": "getBidsList",
      "outputs": [
        {
          "components": [
            {
              "internalType": "address",
              "name": "addr",
              "type": "address"
            },
            {
              "internalType": "int256",
              "name": "quantity",
              "type": "int256"
            },
            {
              "internalType": "int256",
              "name": "price",
              "type": "int256"
            }
          ],
          "internalType": "struct Role.Participant[]",
          "name": "",
          "type": "tuple[]"
        }
      ],
      "payable": false,
      "stateMutability": "view",
      "type": "function"
    },
    {
      "constant": false,
      "inputs": [],
      "name": "sortingAlgorithm",
      "outputs": [
        {
          "components": [
            {
              "internalType": "address",
              "name": "addr",
              "type": "address"
            },
            {
              "internalType": "int256",
              "name": "quantity",
              "type": "int256"
            },
            {
              "internalType": "int256",
              "name": "price",
              "type": "int256"
            }
          ],
          "internalType": "struct Role.Participant[]",
          "name": "",
          "type": "tuple[]"
        },
        {
          "components": [
            {
              "internalType": "address",
              "name": "addr",
              "type": "address"
            },
            {
              "internalType": "int256",
              "name": "quantity",
              "type": "int256"
            },
            {
              "internalType": "int256",
              "name": "price",
              "type": "int256"
            }
          ],
          "internalType": "struct Role.Participant[]",
          "name": "",
          "type": "tuple[]"
        }
      ],
      "payable": false,
      "stateMutability": "nonpayable",
      "type": "function"
    },
    {
      "constant": false,
      "inputs": [
        {
          "internalType": "string",
          "name": "_method",
          "type": "string"
        }
      ],
      "name": "setAsksAndBidsList",
      "outputs": [],
      "payable": false,
      "stateMutability": "nonpayable",
      "type": "function"
    },
    {
      "constant": false,
      "inputs": [],
      "name": "getQFunction",
      "outputs": [],
      "payable": false,
      "stateMutability": "nonpayable",
      "type": "function"
    },
    {
      "constant": true,
      "inputs": [],
      "name": "getQmv",
      "outputs": [
        {
          "internalType": "int256",
          "name": "",
          "type": "int256"
        }
      ],
      "payable": false,
      "stateMutability": "view",
      "type": "function"
    },
    {
      "constant": false,
      "inputs": [],
      "name": "getShift",
      "outputs": [],
      "payable": false,
      "stateMutability": "nonpayable",
      "type": "function"
    },
    {
      "constant": true,
      "inputs": [],
      "name": "getResults",
      "outputs": [
        {
          "components": [
            {
              "internalType": "address",
              "name": "buyer",
              "type": "address"
            },
            {
              "internalType": "address",
              "name": "seller",
              "type": "address"
            },
            {
              "internalType": "int256",
              "name": "quantity",
              "type": "int256"
            },
            {
              "internalType": "int256",
              "name": "balance",
              "type": "int256"
            }
          ],
          "internalType": "struct Role.Result[]",
          "name": "",
          "type": "tuple[]"
        }
      ],
      "payable": false,
      "stateMutability": "view",
      "type": "function"
    },
    {
      "constant": false,
      "inputs": [],
      "name": "settlement",
      "outputs": [],
      "payable": false,
      "stateMutability": "nonpayable",
      "type": "function"
    },
    {
      "constant": false,
      "inputs": [],
      "name": "reset",
      "outputs": [],
      "payable": false,
      "stateMutability": "nonpayable",
      "type": "function"
    },
    {
      "constant": true,
      "inputs": [
        {
          "internalType": "string",
          "name": "_role",
          "type": "string"
        }
      ],
      "name": "isEmpty",
      "outputs": [
        {
          "internalType": "bool",
          "name": "",
          "type": "bool"
        }
      ],
      "payable": false,
      "stateMutability": "view",
      "type": "function"
    },
    {
      "constant": false,
      "inputs": [
        {
          "internalType": "string",
          "name": "_role",
          "type": "string"
        }
      ],
      "name": "poll",
      "outputs": [
        {
          "components": [
            {
              "internalType": "address",
              "name": "addr",
              "type": "address"
            },
            {
              "internalType": "int256",
              "name": "quantity",
              "type": "int256"
            },
            {
              "internalType": "int256",
              "name": "price",
              "type": "int256"
            }
          ],
          "internalType": "struct Role.Participant",
          "name": "",
          "type": "tuple"
        }
      ],
      "payable": false,
      "stateMutability": "nonpayable",
      "type": "function"
    },
    {
      "constant": true,
      "inputs": [
        {
          "internalType": "address",
          "name": "tokenOwner",
          "type": "address"
        }
      ],
      "name": "balanceOf",
      "outputs": [
        {
          "internalType": "uint256",
          "name": "",
          "type": "uint256"
        }
      ],
      "payable": false,
      "stateMutability": "view",
      "type": "function"
    },
    {
      "constant": false,
      "inputs": [
        {
          "internalType": "address",
          "name": "receiver",
          "type": "address"
        },
        {
          "internalType": "uint256",
          "name": "numTokens",
          "type": "uint256"
        }
      ],
      "name": "transfer",
      "outputs": [
        {
          "internalType": "bool",
          "name": "",
          "type": "bool"
        }
      ],
      "payable": false,
      "stateMutability": "nonpayable",
      "type": "function"
    },
    {
      "constant": false,
      "inputs": [
        {
          "internalType": "address",
          "name": "delegate",
          "type": "address"
        },
        {
          "internalType": "uint256",
          "name": "numTokens",
          "type": "uint256"
        }
      ],
      "name": "approve",
      "outputs": [
        {
          "internalType": "bool",
          "name": "",
          "type": "bool"
        }
      ],
      "payable": false,
      "stateMutability": "nonpayable",
      "type": "function"
    },
    {
      "constant": true,
      "inputs": [
        {
          "internalType": "address",
          "name": "owner",
          "type": "address"
        },
        {
          "internalType": "address",
          "name": "delegate",
          "type": "address"
        }
      ],
      "name": "allowance",
      "outputs": [
        {
          "internalType": "uint256",
          "name": "",
          "type": "uint256"
        }
      ],
      "payable": false,
      "stateMutability": "view",
      "type": "function"
    },
    {
      "constant": false,
      "inputs": [
        {
          "internalType": "address",
          "name": "owner",
          "type": "address"
        },
        {
          "internalType": "address",
          "name": "buyer",
          "type": "address"
        },
        {
          "internalType": "uint256",
          "name": "numTokens",
          "type": "uint256"
        }
      ],
      "name": "transferFrom",
      "outputs": [
        {
          "internalType": "bool",
          "name": "",
          "type": "bool"
        }
      ],
      "payable": false,
      "stateMutability": "nonpayable",
      "type": "function"
    },
    {
      "constant": false,
      "inputs": [],
      "name": "deposit",
      "outputs": [],
      "payable": true,
      "stateMutability": "payable",
      "type": "function"
    },
    {
      "constant": false,
      "inputs": [],
      "name": "withdraw",
      "outputs": [],
      "payable": false,
      "stateMutability": "nonpayable",
      "type": "function"
    }
  ],
  "bytecode": "0x608060405261032060055534801561001657600080fd5b506000600860003373ffffffffffffffffffffffffffffffffffffffff1673ffffffffffffffffffffffffffffffffffffffff16815260200190815260200160002081905550613fdc8061006b6000396000f3fe6080604052600436106101ee5760003560e01c8063861c301a1161010d578063cee26ed5116100a0578063dbd0e1b61161006f578063dbd0e1b6146106f1578063dd62ed3e1461071c578063e4f1d9f614610759578063e91d884a14610770578063f2aa82181461079c576101ee565b8063cee26ed514610665578063d0e30db0146106a4578063d826f88f146106ae578063d9281c2d146106c5576101ee565b8063bd4efbfb116100dc578063bd4efbfb146105ba578063bfb6a91c146105e5578063c0e3651314610611578063cb5de7d01461063a576101ee565b8063861c301a146104fe5780638ee6b97e1461053b57806395d89b4114610552578063a9059cbb1461057d576101ee565b80634717f97c116101855780635add5e09116101545780635add5e091461042c57806370a082311461045757806374cd0c4014610494578063835e1e18146104d3576101ee565b80634717f97c14610380578063495f14d3146103ab57806351160630146103d657806359c8d347146103ed576101ee565b806323b872dd116101c157806323b872dd146102c457806327341c8a14610301578063313ce5671461033e5780633ccfd60b14610369576101ee565b806306fdde03146101f3578063095ea7b31461021e5780631b0c27da1461025b5780631b9b72dc1461029b575b600080fd5b3480156101ff57600080fd5b506102086107db565b6040516102159190613d48565b60405180910390f35b34801561022a57600080fd5b506102456004803603610240919081019061387e565b610814565b6040516102529190613ce9565b60405180910390f35b34801561026757600080fd5b50610282600480360361027d9190810190613962565b610906565b6040516102929493929190613bf2565b60405180910390f35b3480156102a757600080fd5b506102c260048036036102bd91908101906138fb565b610983565b005b3480156102d057600080fd5b506102eb60048036036102e6919081019061382f565b610b92565b6040516102f89190613ce9565b60405180910390f35b34801561030d57600080fd5b50610328600480360361032391908101906138ba565b610f12565b6040516103359190613ce9565b60405180910390f35b34801561034a57600080fd5b50610353610ff0565b6040516103609190613da0565b60405180910390f35b34801561037557600080fd5b5061037e610ff5565b005b34801561038c57600080fd5b506103956110c2565b6040516103a29190613cc7565b60405180910390f35b3480156103b757600080fd5b506103c06111e1565b6040516103cd9190613c6e565b60405180910390f35b3480156103e257600080fd5b506103eb6112aa565b005b3480156103f957600080fd5b50610414600480360361040f9190810190613962565b611427565b60405161042393929190613c37565b60405180910390f35b34801561043857600080fd5b5061044161147e565b60405161044e9190613c6e565b60405180910390f35b34801561046357600080fd5b5061047e600480360361047991908101906137ca565b611547565b60405161048b9190613d85565b60405180910390f35b3480156104a057600080fd5b506104bb60048036036104b69190810190613962565b611590565b6040516104ca93929190613c37565b60405180910390f35b3480156104df57600080fd5b506104e86115e7565b6040516104f59190613c6e565b60405180910390f35b34801561050a57600080fd5b50610525600480360361052091908101906138ba565b6116b0565b6040516105329190613d6a565b60405180910390f35b34801561054757600080fd5b50610550611d08565b005b34801561055e57600080fd5b506105676120b1565b6040516105749190613d48565b60405180910390f35b34801561058957600080fd5b506105a4600480360361059f919081019061387e565b6120ea565b6040516105b19190613ce9565b60405180910390f35b3480156105c657600080fd5b506105cf6122d1565b6040516105dc9190613c6e565b60405180910390f35b3480156105f157600080fd5b506105fa61239a565b604051610608929190613d1f565b60405180910390f35b34801561061d57600080fd5b50610638600480360361063391908101906138ba565b61247d565b005b34801561064657600080fd5b5061064f612696565b60405161065c9190613d04565b60405180910390f35b34801561067157600080fd5b5061068c60048036036106879190810190613962565b6126a0565b60405161069b93929190613c37565b60405180910390f35b6106ac6126f7565b005b3480156106ba57600080fd5b506106c36127b2565b005b3480156106d157600080fd5b506106da61289e565b6040516106e8929190613c90565b60405180910390f35b3480156106fd57600080fd5b50610706612ac7565b6040516107139190613d6a565b60405180910390f35b34801561072857600080fd5b50610743600480360361073e91908101906137f3565b612bb9565b6040516107509190613d85565b60405180910390f35b34801561076557600080fd5b5061076e612c40565b005b34801561077c57600080fd5b50610785612ed1565b604051610793929190613d1f565b60405180910390f35b3480156107a857600080fd5b506107c360048036036107be9190810190613962565b612fb4565b6040516107d293929190613c37565b60405180910390f35b6040518060400160405280600c81526020017f456e6572677920546f6b656e000000000000000000000000000000000000000081525081565b600081600a60003373ffffffffffffffffffffffffffffffffffffffff1673ffffffffffffffffffffffffffffffffffffffff16815260200190815260200160002060008573ffffffffffffffffffffffffffffffffffffffff1673ffffffffffffffffffffffffffffffffffffffff168152602001908152602001600020819055508273ffffffffffffffffffffffffffffffffffffffff163373ffffffffffffffffffffffffffffffffffffffff167f8c5be1e5ebec7d5bd14f71427d1e84f3dd0314c0f7b2291e5b200ac8c7c3b925846040516108f49190613d85565b60405180910390a36001905092915050565b6004818154811061091357fe5b90600052602060002090600402016000915090508060000160009054906101000a900473ffffffffffffffffffffffffffffffffffffffff16908060010160009054906101000a900473ffffffffffffffffffffffffffffffffffffffff16908060020154908060030154905084565b61098b613591565b33816000019073ffffffffffffffffffffffffffffffffffffffff16908173ffffffffffffffffffffffffffffffffffffffff168152505082816020018181525050818160400181815250506040518060400160405280600681526020017f73656c6c657200000000000000000000000000000000000000000000000000008152508051906020012084805190602001201415610ab3576000819080600181540180825580915050906001820390600052602060002090600302016000909192909190915060008201518160000160006101000a81548173ffffffffffffffffffffffffffffffffffffffff021916908373ffffffffffffffffffffffffffffffffffffffff1602179055506020820151816001015560408201518160020155505050610b8c565b6040518060400160405280600581526020017f62757965720000000000000000000000000000000000000000000000000000008152508051906020012084805190602001201415610b8b576001819080600181540180825580915050906001820390600052602060002090600302016000909192909190915060008201518160000160006101000a81548173ffffffffffffffffffffffffffffffffffffffff021916908373ffffffffffffffffffffffffffffffffffffffff16021790555060208201518160010155604082015181600201555050505b5b50505050565b6000600860008573ffffffffffffffffffffffffffffffffffffffff1673ffffffffffffffffffffffffffffffffffffffff16815260200190815260200160002054821115610be057600080fd5b600a60008573ffffffffffffffffffffffffffffffffffffffff1673ffffffffffffffffffffffffffffffffffffffff16815260200190815260200160002060003373ffffffffffffffffffffffffffffffffffffffff1673ffffffffffffffffffffffffffffffffffffffff16815260200190815260200160002054821115610c6957600080fd5b610cbb82600860008773ffffffffffffffffffffffffffffffffffffffff1673ffffffffffffffffffffffffffffffffffffffff1681526020019081526020016000205461300b90919063ffffffff16565b600860008673ffffffffffffffffffffffffffffffffffffffff1673ffffffffffffffffffffffffffffffffffffffff16815260200190815260200160002081905550610d8d82600a60008773ffffffffffffffffffffffffffffffffffffffff1673ffffffffffffffffffffffffffffffffffffffff16815260200190815260200160002060003373ffffffffffffffffffffffffffffffffffffffff1673ffffffffffffffffffffffffffffffffffffffff1681526020019081526020016000205461300b90919063ffffffff16565b600a60008673ffffffffffffffffffffffffffffffffffffffff1673ffffffffffffffffffffffffffffffffffffffff16815260200190815260200160002060003373ffffffffffffffffffffffffffffffffffffffff1673ffffffffffffffffffffffffffffffffffffffff16815260200190815260200160002081905550610e5f82600860008673ffffffffffffffffffffffffffffffffffffffff1673ffffffffffffffffffffffffffffffffffffffff1681526020019081526020016000205461302290919063ffffffff16565b600860008573ffffffffffffffffffffffffffffffffffffffff1673ffffffffffffffffffffffffffffffffffffffff168152602001908152602001600020819055508273ffffffffffffffffffffffffffffffffffffffff168473ffffffffffffffffffffffffffffffffffffffff167fddf252ad1be2c89b69c2b068fc378daa952ba7f163c4a11628f55a4df523b3ef84604051610eff9190613d85565b60405180910390a3600190509392505050565b60006040518060400160405280600681526020017f73656c6c657200000000000000000000000000000000000000000000000000008152508051906020012082805190602001201415610f7f5760006002805490501415610f765760019050610feb565b60009050610feb565b6040518060400160405280600581526020017f62757965720000000000000000000000000000000000000000000000000000008152508051906020012082805190602001201415610fea5760006003805490501415610fe15760019050610feb565b60009050610feb565b5b919050565b600081565b3373ffffffffffffffffffffffffffffffffffffffff166108fc600860003373ffffffffffffffffffffffffffffffffffffffff1673ffffffffffffffffffffffffffffffffffffffff168152602001908152602001600020549081150290604051600060405180830381858888f1935050505015801561107a573d6000803e3d6000fd5b506000600860003373ffffffffffffffffffffffffffffffffffffffff1673ffffffffffffffffffffffffffffffffffffffff16815260200190815260200160002081905550565b60606004805480602002602001604051908101604052809291908181526020016000905b828210156111d857838290600052602060002090600402016040518060800160405290816000820160009054906101000a900473ffffffffffffffffffffffffffffffffffffffff1673ffffffffffffffffffffffffffffffffffffffff1673ffffffffffffffffffffffffffffffffffffffff1681526020016001820160009054906101000a900473ffffffffffffffffffffffffffffffffffffffff1673ffffffffffffffffffffffffffffffffffffffff1673ffffffffffffffffffffffffffffffffffffffff16815260200160028201548152602001600382015481525050815260200190600101906110e6565b50505050905090565b60606000805480602002602001604051908101604052809291908181526020016000905b828210156112a157838290600052602060002090600302016040518060600160405290816000820160009054906101000a900473ffffffffffffffffffffffffffffffffffffffff1673ffffffffffffffffffffffffffffffffffffffff1673ffffffffffffffffffffffffffffffffffffffff1681526020016001820154815260200160028201548152505081526020019060010190611205565b50505050905090565b60008090505b600480549050811015611424576000600482815481106112cc57fe5b906000526020600020906004020160030154600483815481106112eb57fe5b90600052602060002090600402016002015402905080600860006004858154811061131257fe5b906000526020600020906004020160000160009054906101000a900473ffffffffffffffffffffffffffffffffffffffff1673ffffffffffffffffffffffffffffffffffffffff1673ffffffffffffffffffffffffffffffffffffffff1681526020019081526020016000206000828254039250508190555080600860006004858154811061139d57fe5b906000526020600020906004020160010160009054906101000a900473ffffffffffffffffffffffffffffffffffffffff1673ffffffffffffffffffffffffffffffffffffffff1673ffffffffffffffffffffffffffffffffffffffff168152602001908152602001600020600082825401925050819055505080806001019150506112b0565b50565b6002818154811061143457fe5b90600052602060002090600302016000915090508060000160009054906101000a900473ffffffffffffffffffffffffffffffffffffffff16908060010154908060020154905083565b60606003805480602002602001604051908101604052809291908181526020016000905b8282101561153e57838290600052602060002090600302016040518060600160405290816000820160009054906101000a900473ffffffffffffffffffffffffffffffffffffffff1673ffffffffffffffffffffffffffffffffffffffff1673ffffffffffffffffffffffffffffffffffffffff16815260200160018201548152602001600282015481525050815260200190600101906114a2565b50505050905090565b6000600860008373ffffffffffffffffffffffffffffffffffffffff1673ffffffffffffffffffffffffffffffffffffffff168152602001908152602001600020549050919050565b6003818154811061159d57fe5b90600052602060002090600302016000915090508060000160009054906101000a900473ffffffffffffffffffffffffffffffffffffffff16908060010154908060020154905083565b60606002805480602002602001604051908101604052809291908181526020016000905b828210156116a757838290600052602060002090600302016040518060600160405290816000820160009054906101000a900473ffffffffffffffffffffffffffffffffffffffff1673ffffffffffffffffffffffffffffffffffffffff1673ffffffffffffffffffffffffffffffffffffffff168152602001600182015481526020016002820154815250508152602001906001019061160b565b50505050905090565b6116b8613591565b6116c0613591565b6040518060400160405280600681526020017f73656c6c6572000000000000000000000000000000000000000000000000000081525080519060200120838051906020012014156119e1576117496040518060400160405280600681526020017f73656c6c65720000000000000000000000000000000000000000000000000000815250610f12565b156117b55773111122223333444455556666777788889999aaaa816000019073ffffffffffffffffffffffffffffffffffffffff16908173ffffffffffffffffffffffffffffffffffffffff1681525050600081604001818152505060008160200181815250506119dc565b60026000815481106117c357fe5b90600052602060002090600302016040518060600160405290816000820160009054906101000a900473ffffffffffffffffffffffffffffffffffffffff1673ffffffffffffffffffffffffffffffffffffffff1673ffffffffffffffffffffffffffffffffffffffff16815260200160018201548152602001600282015481525050905060008090505b600160028054905003811015611922576002600182018154811061186e57fe5b90600052602060002090600302016002828154811061188957fe5b90600052602060002090600302016000820160009054906101000a900473ffffffffffffffffffffffffffffffffffffffff168160000160006101000a81548173ffffffffffffffffffffffffffffffffffffffff021916908373ffffffffffffffffffffffffffffffffffffffff1602179055506001820154816001015560028201548160020155905050808060010191505061184e565b5060026001600280549050038154811061193857fe5b9060005260206000209060030201600080820160006101000a81549073ffffffffffffffffffffffffffffffffffffffff0219169055600182016000905560028201600090555050600280548061198b57fe5b6001900381819060005260206000209060030201600080820160006101000a81549073ffffffffffffffffffffffffffffffffffffffff021916905560018201600090556002820160009055505090555b611cff565b6040518060400160405280600581526020017f62757965720000000000000000000000000000000000000000000000000000008152508051906020012083805190602001201415611cfe57611a6a6040518060400160405280600581526020017f6275796572000000000000000000000000000000000000000000000000000000815250610f12565b15611ad65773111122223333444455556666777788889999aaaa816000019073ffffffffffffffffffffffffffffffffffffffff16908173ffffffffffffffffffffffffffffffffffffffff168152505060008160400181815250506000816020018181525050611cfd565b6003600081548110611ae457fe5b90600052602060002090600302016040518060600160405290816000820160009054906101000a900473ffffffffffffffffffffffffffffffffffffffff1673ffffffffffffffffffffffffffffffffffffffff1673ffffffffffffffffffffffffffffffffffffffff16815260200160018201548152602001600282015481525050905060008090505b600160038054905003811015611c435760036001820181548110611b8f57fe5b906000526020600020906003020160038281548110611baa57fe5b90600052602060002090600302016000820160009054906101000a900473ffffffffffffffffffffffffffffffffffffffff168160000160006101000a81548173ffffffffffffffffffffffffffffffffffffffff021916908373ffffffffffffffffffffffffffffffffffffffff16021790555060018201548160010155600282015481600201559050508080600101915050611b6f565b50600360016003805490500381548110611c5957fe5b9060005260206000209060030201600080820160006101000a81549073ffffffffffffffffffffffffffffffffffffffff02191690556001820160009055600282016000905550506003805480611cac57fe5b6001900381819060005260206000209060030201600080820160006101000a81549073ffffffffffffffffffffffffffffffffffffffff021916905560018201600090556002820160009055505090555b5b5b80915050919050565b60065460078190555060008090505b600080549050811015611d5f5760008181548110611d3157fe5b9060005260206000209060030201600101546007600082825403925050819055508080600101915050611d17565b50611d9e6040518060400160405280600481526020017f646573630000000000000000000000000000000000000000000000000000000081525061247d565b611da6613591565b611dae613591565b600060019050611df26040518060400160405280600681526020017f73656c6c657200000000000000000000000000000000000000000000000000008152506116b0565b9250611e326040518060400160405280600581526020017f62757965720000000000000000000000000000000000000000000000000000008152506116b0565b91505b60008360200151600754011215611e9f578260200151600760008282540192505081905550611e986040518060400160405280600681526020017f73656c6c657200000000000000000000000000000000000000000000000000008152506116b0565b9250611e35565b6007548360200181815101915081815250505b6000826040015114158015611ecc57506000826020015114155b156120ac5760008360400151148015611ee9575060008360200151145b15611ef3576120ac565b816020015183602001511215611f7c57611f1f826000015184600001518560200151866040015161303e565b600090508260200151826020018181510391508181525050611f756040518060400160405280600681526020017f73656c6c657200000000000000000000000000000000000000000000000000008152506116b0565b92506120a7565b81602001518360200151131561200557611fa8826000015184600001518460200151866040015161303e565b600190508160200151836020018181510391508181525050611ffe6040518060400160405280600581526020017f62757965720000000000000000000000000000000000000000000000000000008152506116b0565b91506120a6565b612021826000015184600001518560200151866040015161303e565b600190506120636040518060400160405280600681526020017f73656c6c657200000000000000000000000000000000000000000000000000008152506116b0565b92506120a36040518060400160405280600581526020017f62757965720000000000000000000000000000000000000000000000000000008152506116b0565b91505b5b611eb2565b505050565b6040518060400160405280600381526020017f454e47000000000000000000000000000000000000000000000000000000000081525081565b6000600860003373ffffffffffffffffffffffffffffffffffffffff1673ffffffffffffffffffffffffffffffffffffffff1681526020019081526020016000205482111561213857600080fd5b61218a82600860003373ffffffffffffffffffffffffffffffffffffffff1673ffffffffffffffffffffffffffffffffffffffff1681526020019081526020016000205461300b90919063ffffffff16565b600860003373ffffffffffffffffffffffffffffffffffffffff1673ffffffffffffffffffffffffffffffffffffffff1681526020019081526020016000208190555061221f82600860008673ffffffffffffffffffffffffffffffffffffffff1673ffffffffffffffffffffffffffffffffffffffff1681526020019081526020016000205461302290919063ffffffff16565b600860008573ffffffffffffffffffffffffffffffffffffffff1673ffffffffffffffffffffffffffffffffffffffff168152602001908152602001600020819055508273ffffffffffffffffffffffffffffffffffffffff163373ffffffffffffffffffffffffffffffffffffffff167fddf252ad1be2c89b69c2b068fc378daa952ba7f163c4a11628f55a4df523b3ef846040516122bf9190613d85565b60405180910390a36001905092915050565b60606001805480602002602001604051908101604052809291908181526020016000905b8282101561239157838290600052602060002090600302016040518060600160405290816000820160009054906101000a900473ffffffffffffffffffffffffffffffffffffffff1673ffffffffffffffffffffffffffffffffffffffff1673ffffffffffffffffffffffffffffffffffffffff16815260200160018201548152602001600282015481525050815260200190600101906122f5565b50505050905090565b60008060008090505b600180549050811015612477573373ffffffffffffffffffffffffffffffffffffffff16600182815481106123d457fe5b906000526020600020906003020160000160009054906101000a900473ffffffffffffffffffffffffffffffffffffffff1673ffffffffffffffffffffffffffffffffffffffff16141561246a576001818154811061242f57fe5b9060005260206000209060030201600101546001828154811061244e57fe5b9060005260206000209060030201600201549250925050612479565b80806001019150506123a3565b505b9091565b6002600061248b91906135c8565b60008090505b600080549050811015612571576002600082815481106124ad57fe5b9060005260206000209060030201908060018154018082558091505090600182039060005260206000209060030201600090919290919091506000820160009054906101000a900473ffffffffffffffffffffffffffffffffffffffff168160000160006101000a81548173ffffffffffffffffffffffffffffffffffffffff021916908373ffffffffffffffffffffffffffffffffffffffff16021790555060018201548160010155600282015481600201555050508080600101915050612491565b5061258881600260006001600280549050036131a4565b6003600061259691906135c8565b60008090505b60018054905081101561267c576003600182815481106125b857fe5b9060005260206000209060030201908060018154018082558091505090600182039060005260206000209060030201600090919290919091506000820160009054906101000a900473ffffffffffffffffffffffffffffffffffffffff168160000160006101000a81548173ffffffffffffffffffffffffffffffffffffffff021916908373ffffffffffffffffffffffffffffffffffffffff1602179055506001820154816001015560028201548160020155505050808060010191505061259c565b5061269381600360006001600380549050036131a4565b50565b6000600654905090565b600081815481106126ad57fe5b90600052602060002090600302016000915090508060000160009054906101000a900473ffffffffffffffffffffffffffffffffffffffff16908060010154908060020154905083565b600034905080600860003373ffffffffffffffffffffffffffffffffffffffff1673ffffffffffffffffffffffffffffffffffffffff1681526020019081526020016000206000828254019250508190555060093390806001815401808255809150509060018203906000526020600020016000909192909190916101000a81548173ffffffffffffffffffffffffffffffffffffffff021916908373ffffffffffffffffffffffffffffffffffffffff1602179055505050565b6000806127bf91906135c8565b600160006127cd91906135c8565b600460006127db91906135ec565b600260006127e991906135c8565b600360006127f791906135c8565b600060068190555060008090505b60098054905081101561289b576000600860006009848154811061282557fe5b9060005260206000200160009054906101000a900473ffffffffffffffffffffffffffffffffffffffff1673ffffffffffffffffffffffffffffffffffffffff1673ffffffffffffffffffffffffffffffffffffffff168152602001908152602001600020819055508080600101915050612805565b50565b6060806128eb6040518060400160405280600381526020017f61736300000000000000000000000000000000000000000000000000000000008152506000806001600080549050036131a4565b6129356040518060400160405280600381526020017f61736300000000000000000000000000000000000000000000000000000000008152506001600060018080549050036131a4565b6000600181805480602002602001604051908101604052809291908181526020016000905b828210156129f657838290600052602060002090600302016040518060600160405290816000820160009054906101000a900473ffffffffffffffffffffffffffffffffffffffff1673ffffffffffffffffffffffffffffffffffffffff1673ffffffffffffffffffffffffffffffffffffffff168152602001600182015481526020016002820154815250508152602001906001019061295a565b50505050915080805480602002602001604051908101604052809291908181526020016000905b82821015612ab957838290600052602060002090600302016040518060600160405290816000820160009054906101000a900473ffffffffffffffffffffffffffffffffffffffff1673ffffffffffffffffffffffffffffffffffffffff1673ffffffffffffffffffffffffffffffffffffffff1681526020016001820154815260200160028201548152505081526020019060010190612a1d565b505050509050915091509091565b612acf613591565b60008090505b600080549050811015612bb557600260008281548110612af157fe5b9060005260206000209060030201908060018154018082558091505090600182039060005260206000209060030201600090919290919091506000820160009054906101000a900473ffffffffffffffffffffffffffffffffffffffff168160000160006101000a81548173ffffffffffffffffffffffffffffffffffffffff021916908373ffffffffffffffffffffffffffffffffffffffff16021790555060018201548160010155600282015481600201555050508080600101915050612ad5565b5090565b6000600a60008473ffffffffffffffffffffffffffffffffffffffff1673ffffffffffffffffffffffffffffffffffffffff16815260200190815260200160002060008373ffffffffffffffffffffffffffffffffffffffff1673ffffffffffffffffffffffffffffffffffffffff16815260200190815260200160002054905092915050565b612c48613591565b612c50613591565b612c8e6040518060400160405280600381526020017f617363000000000000000000000000000000000000000000000000000000000081525061247d565b612ccc6040518060400160405280600681526020017f73656c6c657200000000000000000000000000000000000000000000000000008152506116b0565b91506000826040015114158015612ce857506000826020015114155b15612ecd57612d2b6040518060400160405280600581526020017f62757965720000000000000000000000000000000000000000000000000000008152506116b0565b90505b6000816040015114158015612d4857506000816020015114155b8015612d5b575081604001518160400151125b15612da557612d9e6040518060400160405280600581526020017f62757965720000000000000000000000000000000000000000000000000000008152506116b0565b9050612d2e565b600080905060008090505b6000836040015114158015612dca57506000836020015114155b15612eba576000846040015114158015612de957506000846020015114155b8015612dfd57508260400151846040015113155b15612e5057836020015181019050612e496040518060400160405280600681526020017f73656c6c657200000000000000000000000000000000000000000000000000008152506116b0565b9350612eb5565b826020015181039050612e6560065482613577565b600681905550826020015182019150612eb26040518060400160405280600581526020017f62757965720000000000000000000000000000000000000000000000000000008152506116b0565b92505b612db0565b8160066000828254019250508190555050505b5050565b60008060008090505b600080549050811015612fae573373ffffffffffffffffffffffffffffffffffffffff1660008281548110612f0b57fe5b906000526020600020906003020160000160009054906101000a900473ffffffffffffffffffffffffffffffffffffffff1673ffffffffffffffffffffffffffffffffffffffff161415612fa15760008181548110612f6657fe5b90600052602060002090600302016001015460008281548110612f8557fe5b9060005260206000209060030201600201549250925050612fb0565b8080600101915050612eda565b505b9091565b60018181548110612fc157fe5b90600052602060002090600302016000915090508060000160009054906101000a900473ffffffffffffffffffffffffffffffffffffffff16908060010154908060020154905083565b60008282111561301757fe5b818303905092915050565b60008082840190508381101561303457fe5b8091505092915050565b613046613610565b84816000019073ffffffffffffffffffffffffffffffffffffffff16908173ffffffffffffffffffffffffffffffffffffffff168152505083816020019073ffffffffffffffffffffffffffffffffffffffff16908173ffffffffffffffffffffffffffffffffffffffff168152505082816040018181525050818160600181815250506004819080600181540180825580915050906001820390600052602060002090600402016000909192909190915060008201518160000160006101000a81548173ffffffffffffffffffffffffffffffffffffffff021916908373ffffffffffffffffffffffffffffffffffffffff16021790555060208201518160010160006101000a81548173ffffffffffffffffffffffffffffffffffffffff021916908373ffffffffffffffffffffffffffffffffffffffff16021790555060408201518160020155606082015181600301555050505050505050565b60008290506000829050808214156131bd575050613571565b6000856002868603816131cc57fe5b058601815481106131d957fe5b90600052602060002090600302016002015490505b818313613543576040518060400160405280600381526020017f617363000000000000000000000000000000000000000000000000000000000081525080519060200120878051906020012014156132ac575b8086848154811061324e57fe5b9060005260206000209060030201600201541215613273578280600101935050613241565b5b85828154811061328057fe5b9060005260206000209060030201600201548112156132a757818060019003925050613274565b613360565b6040518060400160405280600481526020017f6465736300000000000000000000000000000000000000000000000000000000815250805190602001208780519060200120141561335f575b8086848154811061330557fe5b906000526020600020906003020160020154131561332a5782806001019350506132f8565b5b85828154811061333757fe5b90600052602060002090600302016002015481131561335e5781806001900392505061332b565b5b5b81831361353e5761336f613591565b86848154811061337b57fe5b90600052602060002090600302016040518060600160405290816000820160009054906101000a900473ffffffffffffffffffffffffffffffffffffffff1673ffffffffffffffffffffffffffffffffffffffff1673ffffffffffffffffffffffffffffffffffffffff16815260200160018201548152602001600282015481525050905086838154811061340c57fe5b906000526020600020906003020187858154811061342657fe5b90600052602060002090600302016000820160009054906101000a900473ffffffffffffffffffffffffffffffffffffffff168160000160006101000a81548173ffffffffffffffffffffffffffffffffffffffff021916908373ffffffffffffffffffffffffffffffffffffffff1602179055506001820154816001015560028201548160020155905050808784815481106134bf57fe5b906000526020600020906003020160008201518160000160006101000a81548173ffffffffffffffffffffffffffffffffffffffff021916908373ffffffffffffffffffffffffffffffffffffffff16021790555060208201518160010155604082015181600201559050508380600101945050828060019003935050505b6131ee565b8185121561355857613557878787856131a4565b5b8383121561356d5761356c878785876131a4565b5b5050505b50505050565b6000818313156135875781613589565b825b905092915050565b6040518060600160405280600073ffffffffffffffffffffffffffffffffffffffff16815260200160008152602001600081525090565b50805460008255600302906000526020600020908101906135e99190613664565b50565b508054600082556004029060005260206000209081019061360d91906136ba565b50565b6040518060800160405280600073ffffffffffffffffffffffffffffffffffffffff168152602001600073ffffffffffffffffffffffffffffffffffffffff16815260200160008152602001600081525090565b6136b791905b808211156136b357600080820160006101000a81549073ffffffffffffffffffffffffffffffffffffffff0219169055600182016000905560028201600090555060030161366a565b5090565b90565b61373491905b8082111561373057600080820160006101000a81549073ffffffffffffffffffffffffffffffffffffffff02191690556001820160006101000a81549073ffffffffffffffffffffffffffffffffffffffff021916905560028201600090556003820160009055506004016136c0565b5090565b90565b60008135905061374681613f54565b92915050565b60008135905061375b81613f6b565b92915050565b600082601f83011261377257600080fd5b813561378561378082613de8565b613dbb565b915080825260208301602083018583830111156137a157600080fd5b6137ac838284613f01565b50505092915050565b6000813590506137c481613f82565b92915050565b6000602082840312156137dc57600080fd5b60006137ea84828501613737565b91505092915050565b6000806040838503121561380657600080fd5b600061381485828601613737565b925050602061382585828601613737565b9150509250929050565b60008060006060848603121561384457600080fd5b600061385286828701613737565b935050602061386386828701613737565b9250506040613874868287016137b5565b9150509250925092565b6000806040838503121561389157600080fd5b600061389f85828601613737565b92505060206138b0858286016137b5565b9150509250929050565b6000602082840312156138cc57600080fd5b600082013567ffffffffffffffff8111156138e657600080fd5b6138f284828501613761565b91505092915050565b60008060006060848603121561391057600080fd5b600084013567ffffffffffffffff81111561392a57600080fd5b61393686828701613761565b93505060206139478682870161374c565b92505060406139588682870161374c565b9150509250925092565b60006020828403121561397457600080fd5b6000613982848285016137b5565b91505092915050565b60006139978383613b3d565b60608301905092915050565b60006139af8383613b7f565b60808301905092915050565b6139c481613ea2565b82525050565b6139d381613ea2565b82525050565b60006139e482613e34565b6139ee8185613e6f565b93506139f983613e14565b8060005b83811015613a2a578151613a11888261398b565b9750613a1c83613e55565b9250506001810190506139fd565b5085935050505092915050565b6000613a4282613e3f565b613a4c8185613e80565b9350613a5783613e24565b8060005b83811015613a88578151613a6f88826139a3565b9750613a7a83613e62565b925050600181019050613a5b565b5085935050505092915050565b613a9e81613eb4565b82525050565b613aad81613ec0565b82525050565b613abc81613ec0565b82525050565b6000613acd82613e4a565b613ad78185613e91565b9350613ae7818560208601613f10565b613af081613f43565b840191505092915050565b606082016000820151613b1160008501826139bb565b506020820151613b246020850182613aa4565b506040820151613b376040850182613aa4565b50505050565b606082016000820151613b5360008501826139bb565b506020820151613b666020850182613aa4565b506040820151613b796040850182613aa4565b50505050565b608082016000820151613b9560008501826139bb565b506020820151613ba860208501826139bb565b506040820151613bbb6040850182613aa4565b506060820151613bce6060850182613aa4565b50505050565b613bdd81613eea565b82525050565b613bec81613ef4565b82525050565b6000608082019050613c0760008301876139ca565b613c1460208301866139ca565b613c216040830185613ab3565b613c2e6060830184613ab3565b95945050505050565b6000606082019050613c4c60008301866139ca565b613c596020830185613ab3565b613c666040830184613ab3565b949350505050565b60006020820190508181036000830152613c8881846139d9565b905092915050565b60006040820190508181036000830152613caa81856139d9565b90508181036020830152613cbe81846139d9565b90509392505050565b60006020820190508181036000830152613ce18184613a37565b905092915050565b6000602082019050613cfe6000830184613a95565b92915050565b6000602082019050613d196000830184613ab3565b92915050565b6000604082019050613d346000830185613ab3565b613d416020830184613ab3565b9392505050565b60006020820190508181036000830152613d628184613ac2565b905092915050565b6000606082019050613d7f6000830184613afb565b92915050565b6000602082019050613d9a6000830184613bd4565b92915050565b6000602082019050613db56000830184613be3565b92915050565b6000604051905081810181811067ffffffffffffffff82111715613dde57600080fd5b8060405250919050565b600067ffffffffffffffff821115613dff57600080fd5b601f19601f8301169050602081019050919050565b6000819050602082019050919050565b6000819050602082019050919050565b600081519050919050565b600081519050919050565b600081519050919050565b6000602082019050919050565b6000602082019050919050565b600082825260208201905092915050565b600082825260208201905092915050565b600082825260208201905092915050565b6000613ead82613eca565b9050919050565b60008115159050919050565b6000819050919050565b600073ffffffffffffffffffffffffffffffffffffffff82169050919050565b6000819050919050565b600060ff82169050919050565b82818337600083830152505050565b60005b83811015613f2e578082015181840152602081019050613f13565b83811115613f3d576000848401525b50505050565b6000601f19601f8301169050919050565b613f5d81613ea2565b8114613f6857600080fd5b50565b613f7481613ec0565b8114613f7f57600080fd5b50565b613f8b81613eea565b8114613f9657600080fd5b5056fea365627a7a72315820f8f901c697381f9cfa45f1529988729d73c1a5dff7046ff5bb6f95d58c0fa2d76c6578706572696d656e74616cf564736f6c63430005100040",
  "source": "// SPDX-License-Identifier: MIT\npragma experimental ABIEncoderV2;\npragma solidity >=0.4.21 <8.10.0;\n\nimport \"./Role.sol\";\n\ncontract DoubleAuction is Role {\n    Participant[] public sellers;\n    Participant[] public buyers;\n    Participant[] public Asks;\n    Participant[] public Bids;\n    Result[] public results;\n    int256 gridPrice = 800;\n\n    function joinAuction(\n        string memory _role,\n        int256 _quantity,\n        int256 _price\n    ) public {\n        Participant memory temp;\n        temp.addr = msg.sender;\n        temp.quantity = _quantity;\n        temp.price = _price;\n        if (keccak256(bytes(_role)) == keccak256(bytes(\"seller\"))) {\n            sellers.push(temp);\n        } else if (keccak256(bytes(_role)) == keccak256(bytes(\"buyer\"))) {\n            buyers.push(temp);\n        }\n    }\n\n    function getSellerPerference()\n        public\n        view\n        returns (int256 quantity, int256 price)\n    {\n        for (uint256 i = 0; i < sellers.length; i++) {\n            if (sellers[i].addr == msg.sender) {\n                return (sellers[i].quantity, sellers[i].price);\n            }\n        }\n    }\n\n    function getBuyerPerference()\n        public\n        view\n        returns (int256 quantity, int256 price)\n    {\n        for (uint256 i = 0; i < buyers.length; i++) {\n            if (buyers[i].addr == msg.sender) {\n                return (buyers[i].quantity, buyers[i].price);\n            }\n        }\n    }\n\n    function getSellerList() public view returns (Participant[] memory) {\n        return sellers;\n    }\n\n    function getSeller() public returns (Participant memory) {\n        for (uint256 i = 0; i < sellers.length; i++) {\n            Asks.push(sellers[i]);\n        }\n    }\n\n    function getBuyerList() public view returns (Participant[] memory) {\n        return buyers;\n    }\n\n    function getAsksList() public view returns (Participant[] memory) {\n        return Asks;\n    }\n\n    function getBidsList() public view returns (Participant[] memory) {\n        return Bids;\n    }\n\n    function sortingAlgorithm()\n        public\n        returns (Participant[] memory, Participant[] memory)\n    {\n        quickSort(\"asc\", sellers, 0, int256(sellers.length - 1));\n        quickSort(\"asc\", buyers, 0, int256(buyers.length - 1));\n\n        return (sellers, buyers);\n    }\n\n    function setAsksAndBidsList(string memory _method) public {\n        delete Asks;\n        for (uint256 i = 0; i < sellers.length; i++) {\n            Asks.push(sellers[i]);\n        }\n\n        quickSort(_method, Asks, 0, int256(Asks.length - 1));\n\n        delete Bids;\n        for (uint256 i = 0; i < buyers.length; i++) {\n            Bids.push(buyers[i]);\n        }\n        quickSort(_method, Bids, 0, int256(Bids.length - 1));\n    }\n\n    function quickSort(\n        string memory _mode,\n        Participant[] storage arr,\n        int256 left,\n        int256 right\n    ) internal {\n        int256 i = left;\n        int256 j = right;\n        if (i == j) return;\n        int256 pivot = arr[uint256(left + (right - left) / 2)].price;\n        while (i <= j) {\n            if (keccak256(bytes(_mode)) == keccak256(bytes(\"asc\"))) {\n                while (arr[uint256(i)].price < pivot) i++;\n                while (pivot < arr[uint256(j)].price) j--;\n            } else if (keccak256(bytes(_mode)) == keccak256(bytes(\"desc\"))) {\n                while (arr[uint256(i)].price > pivot) i++;\n                while (pivot > arr[uint256(j)].price) j--;\n            }\n            if (i <= j) {\n                Participant memory temp;\n                temp = arr[uint256(i)];\n                arr[uint256(i)] = arr[uint256(j)];\n                arr[uint256(j)] = temp;\n\n                i++;\n                j--;\n            }\n        }\n        if (left < j) quickSort(_mode, arr, left, j);\n        if (i < right) quickSort(_mode, arr, i, right);\n    }\n\n    int256 qMin;\n    int256 totalSellersQuantity;\n\n    function getQFunction() public {\n        Participant memory a;\n        Participant memory b;\n\n        setAsksAndBidsList(\"asc\");\n\n        a = poll(\"seller\");\n        if (a.price != 0 && a.quantity != 0) {\n            b = poll(\"buyer\");\n\n            while (b.price != 0 && b.quantity != 0 && b.price < a.price) {\n                b = poll(\"buyer\");\n            }\n\n            // qd: Will Be The Demand at Price 0\n            int256 qd = 0;\n            // q: Current Horizontal Distance Between The Flipped Supply and The Demand Curves (Minus The Final Value of qd, Which is Unknow at Present).\n            int256 q = 0;\n\n            while (b.price != 0 && b.quantity != 0) {\n                if (a.price != 0 && a.quantity != 0 && a.price <= b.price) {\n                    q += a.quantity;\n                    a = poll(\"seller\");\n                } else {\n                    q -= b.quantity;\n                    qMin = min(qMin, q);\n                    qd += b.quantity;\n                    b = poll(\"buyer\");\n                }\n            }\n\n            qMin += qd;\n        }\n    }\n\n    function getQmv() public view returns (int256) {\n        return qMin;\n    }\n\n    function getShift() public {\n        totalSellersQuantity = qMin;\n        // Match\n        for (uint256 i = 0; i < sellers.length; i++) {\n            totalSellersQuantity -= sellers[i].quantity;\n        }\n\n        setAsksAndBidsList(\"desc\");\n\n        Participant memory a;\n        Participant memory b;\n        bool temp4seller = true;\n\n        a = poll(\"seller\");\n        b = poll(\"buyer\");\n\n        while (totalSellersQuantity + a.quantity < 0) {\n            totalSellersQuantity += a.quantity;\n            a = poll(\"seller\");\n        }\n\n        a.quantity += totalSellersQuantity;\n\n        while (b.price != 0 && b.quantity != 0) {\n            if (a.price == 0 && a.quantity == 0) {\n                break;\n            } else if (a.quantity < b.quantity) {\n                pushResult(b.addr, a.addr, a.quantity, a.price);\n\n                temp4seller = false;\n                b.quantity -= a.quantity;\n                a = poll(\"seller\");\n            } else if (a.quantity > b.quantity) {\n                pushResult(b.addr, a.addr, b.quantity, a.price);\n\n                temp4seller = true;\n                a.quantity -= b.quantity;\n                b = poll(\"buyer\");\n            } else {\n                pushResult(b.addr, a.addr, a.quantity, a.price);\n\n                temp4seller = true;\n                a = poll(\"seller\");\n                b = poll(\"buyer\");\n            }\n        }\n    }\n\n    function getResults() public view returns (Result[] memory) {\n        return results;\n    }\n\n    function settlement() public {\n        for (uint256 i = 0; i < results.length; i++) {\n            uint256 total = uint256(results[i].quantity * results[i].balance);\n\n            balances[results[i].buyer] -= total;\n            balances[results[i].seller] += total;\n        }\n    }\n\n    function pushResult(\n        address _buyer,\n        address _seller,\n        int256 _quantity,\n        int256 _balance\n    ) internal {\n        Result memory result;\n\n        result.buyer = _buyer;\n        result.seller = _seller;\n        result.quantity = _quantity;\n        result.balance = _balance;\n        results.push(result);\n    }\n\n    function reset() public {\n        delete sellers;\n        delete buyers;\n        delete results;\n        delete Asks;\n        delete Bids;\n        qMin = 0;\n        for (uint256 i = 0; i < allAddress.length; i++) {\n            balances[allAddress[i]] = 0;\n        }\n    }\n\n    function isEmpty(string memory _role) public view returns (bool) {\n        if (keccak256(bytes(_role)) == keccak256(bytes(\"seller\"))) {\n            if (Asks.length == 0) {\n                return true;\n            } else {\n                return false;\n            }\n        } else if (keccak256(bytes(_role)) == keccak256(bytes(\"buyer\"))) {\n            if (Bids.length == 0) {\n                return true;\n            } else {\n                return false;\n            }\n        }\n    }\n\n    function poll(string memory _role) public returns (Participant memory) {\n        Participant memory temp;\n        if (keccak256(bytes(_role)) == keccak256(bytes(\"seller\"))) {\n            if (isEmpty(\"seller\")) {\n                temp.addr = 0x111122223333444455556666777788889999aAaa;\n                temp.price = 0;\n                temp.quantity = 0;\n            } else {\n                temp = Asks[0];\n                for (uint256 i = 0; i < Asks.length - 1; i++) {\n                    Asks[i] = Asks[i + 1];\n                }\n                delete Asks[Asks.length - 1];\n                Asks.pop();\n            }\n        } else if (keccak256(bytes(_role)) == keccak256(bytes(\"buyer\"))) {\n            if (isEmpty(\"buyer\")) {\n                temp.addr = 0x111122223333444455556666777788889999aAaa;\n                temp.price = 0;\n                temp.quantity = 0;\n            } else {\n                temp = Bids[0];\n                for (uint256 i = 0; i < Bids.length - 1; i++) {\n                    Bids[i] = Bids[i + 1];\n                }\n                delete Bids[Bids.length - 1];\n                Bids.pop();\n            }\n        }\n\n        return temp;\n    }\n\n    function min(int256 a, int256 b) internal pure returns (int256) {\n        return a <= b ? a : b;\n    }\n\n    // =================================================================\n    // |                             Token                             |\n    // =================================================================\n\n    string public constant name = \"Energy Token\";\n    string public constant symbol = \"ENG\";\n    uint8 public constant decimals = 0;\n\n    constructor() public {\n        balances[msg.sender] = 0;\n    }\n\n    event Approval(\n        address indexed tokenOwner,\n        address indexed spender,\n        uint256 tokens\n    );\n    event Transfer(address indexed from, address indexed to, uint256 tokens);\n\n    mapping(address => uint256) balances;\n    address[] allAddress;\n\n    mapping(address => mapping(address => uint256)) allowed;\n\n    // uint256 totalSupply_;\n\n    using SafeMath for uint256;\n\n    // function totalSupply() public view returns (uint256) {\n    //     return totalSupply_;\n    // }\n\n    function balanceOf(address tokenOwner) public view returns (uint256) {\n        return balances[tokenOwner];\n    }\n\n    function transfer(address receiver, uint256 numTokens)\n        public\n        returns (bool)\n    {\n        require(numTokens <= balances[msg.sender]);\n        balances[msg.sender] = balances[msg.sender].sub(numTokens);\n        balances[receiver] = balances[receiver].add(numTokens);\n        emit Transfer(msg.sender, receiver, numTokens);\n        return true;\n    }\n\n    function approve(address delegate, uint256 numTokens)\n        public\n        returns (bool)\n    {\n        allowed[msg.sender][delegate] = numTokens;\n        emit Approval(msg.sender, delegate, numTokens);\n        return true;\n    }\n\n    function allowance(address owner, address delegate)\n        public\n        view\n        returns (uint256)\n    {\n        return allowed[owner][delegate];\n    }\n\n    function transferFrom(\n        address owner,\n        address buyer,\n        uint256 numTokens\n    ) public returns (bool) {\n        require(numTokens <= balances[owner]);\n        require(numTokens <= allowed[owner][msg.sender]);\n\n        balances[owner] = balances[owner].sub(numTokens);\n        allowed[owner][msg.sender] = allowed[owner][msg.sender].sub(numTokens);\n        balances[buyer] = balances[buyer].add(numTokens);\n        emit Transfer(owner, buyer, numTokens);\n        return true;\n    }\n\n    function deposit() public payable {\n        uint256 numTokens = msg.value;\n        balances[msg.sender] += numTokens;\n        allAddress.push(msg.sender);\n    }\n\n    function withdraw() public {\n        msg.sender.transfer(balances[msg.sender]);\n        balances[msg.sender] = 0;\n    }\n}\n\nlibrary SafeMath {\n    function sub(uint256 a, uint256 b) internal pure returns (uint256) {\n        assert(b <= a);\n        return a - b;\n    }\n\n    function add(uint256 a, uint256 b) internal pure returns (uint256) {\n        uint256 c = a + b;\n        assert(c >= a);\n        return c;\n    }\n}\n",
  "sourcePath": "/Users/kankuni/Documents/DoubleAuctionSolidity/contracts/DoubleAuction.sol",
  "compiler": {
    "name": "solc",
    "version": "0.5.16+commit.9c3226ce.Emscripten.clang"
  },
  "schemaVersion": "3.4.6",
  "updatedAt": "2022-04-28T09:40:02.414Z",
  "networkType": "ethereum",
  "devdoc": {
    "methods": {}
  },
  "userdoc": {
    "methods": {}
  }
}