{
  "contractName": "DoubleAuction",
  "abi": [
    {
      "constant": true,
      "inputs": [
        {
          "internalType": "uint256",
          "name": "",
          "type": "uint256"
        }
      ],
      "name": "Asks",
      "outputs": [
        {
          "internalType": "address",
          "name": "addr",
          "type": "address"
        },
        {
          "internalType": "int256",
          "name": "quantity",
          "type": "int256"
        },
        {
          "internalType": "int256",
          "name": "price",
          "type": "int256"
        }
      ],
      "payable": false,
      "stateMutability": "view",
      "type": "function"
    },
    {
      "constant": true,
      "inputs": [
        {
          "internalType": "uint256",
          "name": "",
          "type": "uint256"
        }
      ],
      "name": "Bids",
      "outputs": [
        {
          "internalType": "address",
          "name": "addr",
          "type": "address"
        },
        {
          "internalType": "int256",
          "name": "quantity",
          "type": "int256"
        },
        {
          "internalType": "int256",
          "name": "price",
          "type": "int256"
        }
      ],
      "payable": false,
      "stateMutability": "view",
      "type": "function"
    },
    {
      "constant": true,
      "inputs": [
        {
          "internalType": "uint256",
          "name": "",
          "type": "uint256"
        }
      ],
      "name": "buyers",
      "outputs": [
        {
          "internalType": "address",
          "name": "addr",
          "type": "address"
        },
        {
          "internalType": "int256",
          "name": "quantity",
          "type": "int256"
        },
        {
          "internalType": "int256",
          "name": "price",
          "type": "int256"
        }
      ],
      "payable": false,
      "stateMutability": "view",
      "type": "function"
    },
    {
      "constant": true,
      "inputs": [
        {
          "internalType": "uint256",
          "name": "",
          "type": "uint256"
        }
      ],
      "name": "results",
      "outputs": [
        {
          "internalType": "address",
          "name": "addr",
          "type": "address"
        },
        {
          "internalType": "string",
          "name": "role",
          "type": "string"
        },
        {
          "internalType": "int256",
          "name": "quantity",
          "type": "int256"
        },
        {
          "internalType": "int256",
          "name": "balance",
          "type": "int256"
        }
      ],
      "payable": false,
      "stateMutability": "view",
      "type": "function"
    },
    {
      "constant": true,
      "inputs": [
        {
          "internalType": "uint256",
          "name": "",
          "type": "uint256"
        }
      ],
      "name": "sellers",
      "outputs": [
        {
          "internalType": "address",
          "name": "addr",
          "type": "address"
        },
        {
          "internalType": "int256",
          "name": "quantity",
          "type": "int256"
        },
        {
          "internalType": "int256",
          "name": "price",
          "type": "int256"
        }
      ],
      "payable": false,
      "stateMutability": "view",
      "type": "function"
    },
    {
      "constant": false,
      "inputs": [
        {
          "internalType": "string",
          "name": "_role",
          "type": "string"
        },
        {
          "internalType": "int256",
          "name": "_quantity",
          "type": "int256"
        },
        {
          "internalType": "int256",
          "name": "_price",
          "type": "int256"
        }
      ],
      "name": "joinAuction",
      "outputs": [],
      "payable": false,
      "stateMutability": "nonpayable",
      "type": "function"
    },
    {
      "constant": true,
      "inputs": [],
      "name": "getSellerPerference",
      "outputs": [
        {
          "internalType": "int256",
          "name": "quantity",
          "type": "int256"
        },
        {
          "internalType": "int256",
          "name": "price",
          "type": "int256"
        }
      ],
      "payable": false,
      "stateMutability": "view",
      "type": "function"
    },
    {
      "constant": true,
      "inputs": [],
      "name": "getBuyerPerference",
      "outputs": [
        {
          "internalType": "int256",
          "name": "quantity",
          "type": "int256"
        },
        {
          "internalType": "int256",
          "name": "price",
          "type": "int256"
        }
      ],
      "payable": false,
      "stateMutability": "view",
      "type": "function"
    },
    {
      "constant": true,
      "inputs": [],
      "name": "getSellerList",
      "outputs": [
        {
          "components": [
            {
              "internalType": "address",
              "name": "addr",
              "type": "address"
            },
            {
              "internalType": "int256",
              "name": "quantity",
              "type": "int256"
            },
            {
              "internalType": "int256",
              "name": "price",
              "type": "int256"
            }
          ],
          "internalType": "struct Role.Participant[]",
          "name": "",
          "type": "tuple[]"
        }
      ],
      "payable": false,
      "stateMutability": "view",
      "type": "function"
    },
    {
      "constant": false,
      "inputs": [],
      "name": "getSeller",
      "outputs": [
        {
          "components": [
            {
              "internalType": "address",
              "name": "addr",
              "type": "address"
            },
            {
              "internalType": "int256",
              "name": "quantity",
              "type": "int256"
            },
            {
              "internalType": "int256",
              "name": "price",
              "type": "int256"
            }
          ],
          "internalType": "struct Role.Participant",
          "name": "",
          "type": "tuple"
        }
      ],
      "payable": false,
      "stateMutability": "nonpayable",
      "type": "function"
    },
    {
      "constant": true,
      "inputs": [],
      "name": "getBuyerList",
      "outputs": [
        {
          "components": [
            {
              "internalType": "address",
              "name": "addr",
              "type": "address"
            },
            {
              "internalType": "int256",
              "name": "quantity",
              "type": "int256"
            },
            {
              "internalType": "int256",
              "name": "price",
              "type": "int256"
            }
          ],
          "internalType": "struct Role.Participant[]",
          "name": "",
          "type": "tuple[]"
        }
      ],
      "payable": false,
      "stateMutability": "view",
      "type": "function"
    },
    {
      "constant": true,
      "inputs": [],
      "name": "getAsksList",
      "outputs": [
        {
          "components": [
            {
              "internalType": "address",
              "name": "addr",
              "type": "address"
            },
            {
              "internalType": "int256",
              "name": "quantity",
              "type": "int256"
            },
            {
              "internalType": "int256",
              "name": "price",
              "type": "int256"
            }
          ],
          "internalType": "struct Role.Participant[]",
          "name": "",
          "type": "tuple[]"
        }
      ],
      "payable": false,
      "stateMutability": "view",
      "type": "function"
    },
    {
      "constant": true,
      "inputs": [],
      "name": "getBidsList",
      "outputs": [
        {
          "components": [
            {
              "internalType": "address",
              "name": "addr",
              "type": "address"
            },
            {
              "internalType": "int256",
              "name": "quantity",
              "type": "int256"
            },
            {
              "internalType": "int256",
              "name": "price",
              "type": "int256"
            }
          ],
          "internalType": "struct Role.Participant[]",
          "name": "",
          "type": "tuple[]"
        }
      ],
      "payable": false,
      "stateMutability": "view",
      "type": "function"
    },
    {
      "constant": false,
      "inputs": [],
      "name": "sortingAlgorithm",
      "outputs": [
        {
          "components": [
            {
              "internalType": "address",
              "name": "addr",
              "type": "address"
            },
            {
              "internalType": "int256",
              "name": "quantity",
              "type": "int256"
            },
            {
              "internalType": "int256",
              "name": "price",
              "type": "int256"
            }
          ],
          "internalType": "struct Role.Participant[]",
          "name": "",
          "type": "tuple[]"
        },
        {
          "components": [
            {
              "internalType": "address",
              "name": "addr",
              "type": "address"
            },
            {
              "internalType": "int256",
              "name": "quantity",
              "type": "int256"
            },
            {
              "internalType": "int256",
              "name": "price",
              "type": "int256"
            }
          ],
          "internalType": "struct Role.Participant[]",
          "name": "",
          "type": "tuple[]"
        }
      ],
      "payable": false,
      "stateMutability": "nonpayable",
      "type": "function"
    },
    {
      "constant": false,
      "inputs": [],
      "name": "setAsksAndBidsList",
      "outputs": [],
      "payable": false,
      "stateMutability": "nonpayable",
      "type": "function"
    },
    {
      "constant": false,
      "inputs": [],
      "name": "getQFunction",
      "outputs": [],
      "payable": false,
      "stateMutability": "nonpayable",
      "type": "function"
    },
    {
      "constant": true,
      "inputs": [],
      "name": "getQmv",
      "outputs": [
        {
          "internalType": "int256",
          "name": "",
          "type": "int256"
        }
      ],
      "payable": false,
      "stateMutability": "view",
      "type": "function"
    },
    {
      "constant": false,
      "inputs": [],
      "name": "getShift",
      "outputs": [],
      "payable": false,
      "stateMutability": "nonpayable",
      "type": "function"
    },
    {
      "constant": true,
      "inputs": [],
      "name": "getResults",
      "outputs": [
        {
          "components": [
            {
              "internalType": "address",
              "name": "addr",
              "type": "address"
            },
            {
              "internalType": "string",
              "name": "role",
              "type": "string"
            },
            {
              "internalType": "int256",
              "name": "quantity",
              "type": "int256"
            },
            {
              "internalType": "int256",
              "name": "balance",
              "type": "int256"
            }
          ],
          "internalType": "struct Role.Result[]",
          "name": "",
          "type": "tuple[]"
        }
      ],
      "payable": false,
      "stateMutability": "view",
      "type": "function"
    },
    {
      "constant": false,
      "inputs": [],
      "name": "reset",
      "outputs": [],
      "payable": false,
      "stateMutability": "nonpayable",
      "type": "function"
    },
    {
      "constant": true,
      "inputs": [
        {
          "internalType": "string",
          "name": "_role",
          "type": "string"
        }
      ],
      "name": "isEmpty",
      "outputs": [
        {
          "internalType": "bool",
          "name": "",
          "type": "bool"
        }
      ],
      "payable": false,
      "stateMutability": "view",
      "type": "function"
    },
    {
      "constant": false,
      "inputs": [
        {
          "internalType": "string",
          "name": "_role",
          "type": "string"
        }
      ],
      "name": "poll",
      "outputs": [
        {
          "components": [
            {
              "internalType": "address",
              "name": "addr",
              "type": "address"
            },
            {
              "internalType": "int256",
              "name": "quantity",
              "type": "int256"
            },
            {
              "internalType": "int256",
              "name": "price",
              "type": "int256"
            }
          ],
          "internalType": "struct Role.Participant",
          "name": "",
          "type": "tuple"
        }
      ],
      "payable": false,
      "stateMutability": "nonpayable",
      "type": "function"
    }
  ],
  "bytecode": "0x608060405261032060055534801561001657600080fd5b506136a8806100266000396000f3fe608060405234801561001057600080fd5b50600436106101425760003560e01c80638ee6b97e116100b8578063d826f88f1161007c578063d826f88f14610373578063d9281c2d1461037d578063dbd0e1b61461039c578063e4f1d9f6146103ba578063e91d884a146103c4578063f2aa8218146103e357610142565b80638ee6b97e146102dc578063bd4efbfb146102e6578063bfb6a91c14610304578063cb5de7d014610323578063cee26ed51461034157610142565b8063495f14d31161010a578063495f14d3146101ee57806359c8d3471461020c5780635add5e091461023e57806374cd0c401461025c578063835e1e181461028e578063861c301a146102ac57610142565b80631b0c27da146101475780631b9b72dc1461017a57806327341c8a1461019657806341c4d29b146101c65780634717f97c146101d0575b600080fd5b610161600480360361015c9190810190613056565b610415565b6040516101719493929190613359565b60405180910390f35b610194600480360361018f9190810190612fef565b61050a565b005b6101b060048036036101ab9190810190612fae565b610719565b6040516101bd9190613420565b60405180910390f35b6101ce6107f7565b005b6101d8610a5d565b6040516101e591906133fe565b60405180910390f35b6101f6610bc8565b60405161020391906133a5565b60405180910390f35b61022660048036036102219190810190613056565b610c91565b60405161023593929190613322565b60405180910390f35b610246610ce8565b60405161025391906133a5565b60405180910390f35b61027660048036036102719190810190613056565b610db1565b60405161028593929190613322565b60405180910390f35b610296610e08565b6040516102a391906133a5565b60405180910390f35b6102c660048036036102c19190810190612fae565b610ed1565b6040516102d3919061347f565b60405180910390f35b6102e4611529565b005b6102ee611ee8565b6040516102fb91906133a5565b60405180910390f35b61030c611fb1565b60405161031a929190613456565b60405180910390f35b61032b612094565b604051610338919061343b565b60405180910390f35b61035b60048036036103569190810190613056565b61209e565b60405161036a93929190613322565b60405180910390f35b61037b6120f5565b005b610385612120565b6040516103939291906133c7565b60405180910390f35b6103a4612349565b6040516103b1919061347f565b60405180910390f35b6103c261243b565b005b6103cc612696565b6040516103da929190613456565b60405180910390f35b6103fd60048036036103f89190810190613056565b612779565b60405161040c93929190613322565b60405180910390f35b6004818154811061042257fe5b90600052602060002090600402016000915090508060000160009054906101000a900473ffffffffffffffffffffffffffffffffffffffff1690806001018054600181600116156101000203166002900480601f0160208091040260200160405190810160405280929190818152602001828054600181600116156101000203166002900480156104f45780601f106104c9576101008083540402835291602001916104f4565b820191906000526020600020905b8154815290600101906020018083116104d757829003601f168201915b5050505050908060020154908060030154905084565b610512612cca565b33816000019073ffffffffffffffffffffffffffffffffffffffff16908173ffffffffffffffffffffffffffffffffffffffff168152505082816020018181525050818160400181815250506040518060400160405280600681526020017f73656c6c65720000000000000000000000000000000000000000000000000000815250805190602001208480519060200120141561063a576000819080600181540180825580915050906001820390600052602060002090600302016000909192909190915060008201518160000160006101000a81548173ffffffffffffffffffffffffffffffffffffffff021916908373ffffffffffffffffffffffffffffffffffffffff1602179055506020820151816001015560408201518160020155505050610713565b6040518060400160405280600581526020017f62757965720000000000000000000000000000000000000000000000000000008152508051906020012084805190602001201415610712576001819080600181540180825580915050906001820390600052602060002090600302016000909192909190915060008201518160000160006101000a81548173ffffffffffffffffffffffffffffffffffffffff021916908373ffffffffffffffffffffffffffffffffffffffff16021790555060208201518160010155604082015181600201555050505b5b50505050565b60006040518060400160405280600681526020017f73656c6c657200000000000000000000000000000000000000000000000000008152508051906020012082805190602001201415610786576000600280549050141561077d57600190506107f2565b600090506107f2565b6040518060400160405280600581526020017f627579657200000000000000000000000000000000000000000000000000000081525080519060200120828051906020012014156107f157600060038054905014156107e857600190506107f2565b600090506107f2565b5b919050565b60008090505b6000805490508110156108dd5760026000828154811061081957fe5b9060005260206000209060030201908060018154018082558091505090600182039060005260206000209060030201600090919290919091506000820160009054906101000a900473ffffffffffffffffffffffffffffffffffffffff168160000160006101000a81548173ffffffffffffffffffffffffffffffffffffffff021916908373ffffffffffffffffffffffffffffffffffffffff160217905550600182015481600101556002820154816002015550505080806001019150506107fd565b506109296040518060400160405280600381526020017f6173630000000000000000000000000000000000000000000000000000000000815250600260006001600280549050036127d0565b60008090505b600180549050811015610a0f5760036001828154811061094b57fe5b9060005260206000209060030201908060018154018082558091505090600182039060005260206000209060030201600090919290919091506000820160009054906101000a900473ffffffffffffffffffffffffffffffffffffffff168160000160006101000a81548173ffffffffffffffffffffffffffffffffffffffff021916908373ffffffffffffffffffffffffffffffffffffffff1602179055506001820154816001015560028201548160020155505050808060010191505061092f565b50610a5b6040518060400160405280600381526020017f6173630000000000000000000000000000000000000000000000000000000000815250600360006001600380549050036127d0565b565b60606004805480602002602001604051908101604052809291908181526020016000905b82821015610bbf57838290600052602060002090600402016040518060800160405290816000820160009054906101000a900473ffffffffffffffffffffffffffffffffffffffff1673ffffffffffffffffffffffffffffffffffffffff1673ffffffffffffffffffffffffffffffffffffffff168152602001600182018054600181600116156101000203166002900480601f016020809104026020016040519081016040528092919081815260200182805460018160011615610100020316600290048015610b935780601f10610b6857610100808354040283529160200191610b93565b820191906000526020600020905b815481529060010190602001808311610b7657829003601f168201915b505050505081526020016002820154815260200160038201548152505081526020019060010190610a81565b50505050905090565b60606000805480602002602001604051908101604052809291908181526020016000905b82821015610c8857838290600052602060002090600302016040518060600160405290816000820160009054906101000a900473ffffffffffffffffffffffffffffffffffffffff1673ffffffffffffffffffffffffffffffffffffffff1673ffffffffffffffffffffffffffffffffffffffff1681526020016001820154815260200160028201548152505081526020019060010190610bec565b50505050905090565b60028181548110610c9e57fe5b90600052602060002090600302016000915090508060000160009054906101000a900473ffffffffffffffffffffffffffffffffffffffff16908060010154908060020154905083565b60606003805480602002602001604051908101604052809291908181526020016000905b82821015610da857838290600052602060002090600302016040518060600160405290816000820160009054906101000a900473ffffffffffffffffffffffffffffffffffffffff1673ffffffffffffffffffffffffffffffffffffffff1673ffffffffffffffffffffffffffffffffffffffff1681526020016001820154815260200160028201548152505081526020019060010190610d0c565b50505050905090565b60038181548110610dbe57fe5b90600052602060002090600302016000915090508060000160009054906101000a900473ffffffffffffffffffffffffffffffffffffffff16908060010154908060020154905083565b60606002805480602002602001604051908101604052809291908181526020016000905b82821015610ec857838290600052602060002090600302016040518060600160405290816000820160009054906101000a900473ffffffffffffffffffffffffffffffffffffffff1673ffffffffffffffffffffffffffffffffffffffff1673ffffffffffffffffffffffffffffffffffffffff1681526020016001820154815260200160028201548152505081526020019060010190610e2c565b50505050905090565b610ed9612cca565b610ee1612cca565b6040518060400160405280600681526020017f73656c6c65720000000000000000000000000000000000000000000000000000815250805190602001208380519060200120141561120257610f6a6040518060400160405280600681526020017f73656c6c65720000000000000000000000000000000000000000000000000000815250610719565b15610fd65773111122223333444455556666777788889999aaaa816000019073ffffffffffffffffffffffffffffffffffffffff16908173ffffffffffffffffffffffffffffffffffffffff1681525050600081604001818152505060008160200181815250506111fd565b6002600081548110610fe457fe5b90600052602060002090600302016040518060600160405290816000820160009054906101000a900473ffffffffffffffffffffffffffffffffffffffff1673ffffffffffffffffffffffffffffffffffffffff1673ffffffffffffffffffffffffffffffffffffffff16815260200160018201548152602001600282015481525050905060008090505b600160028054905003811015611143576002600182018154811061108f57fe5b9060005260206000209060030201600282815481106110aa57fe5b90600052602060002090600302016000820160009054906101000a900473ffffffffffffffffffffffffffffffffffffffff168160000160006101000a81548173ffffffffffffffffffffffffffffffffffffffff021916908373ffffffffffffffffffffffffffffffffffffffff1602179055506001820154816001015560028201548160020155905050808060010191505061106f565b5060026001600280549050038154811061115957fe5b9060005260206000209060030201600080820160006101000a81549073ffffffffffffffffffffffffffffffffffffffff021916905560018201600090556002820160009055505060028054806111ac57fe5b6001900381819060005260206000209060030201600080820160006101000a81549073ffffffffffffffffffffffffffffffffffffffff021916905560018201600090556002820160009055505090555b611520565b6040518060400160405280600581526020017f6275796572000000000000000000000000000000000000000000000000000000815250805190602001208380519060200120141561151f5761128b6040518060400160405280600581526020017f6275796572000000000000000000000000000000000000000000000000000000815250610719565b156112f75773111122223333444455556666777788889999aaaa816000019073ffffffffffffffffffffffffffffffffffffffff16908173ffffffffffffffffffffffffffffffffffffffff16815250506000816040018181525050600081602001818152505061151e565b600360008154811061130557fe5b90600052602060002090600302016040518060600160405290816000820160009054906101000a900473ffffffffffffffffffffffffffffffffffffffff1673ffffffffffffffffffffffffffffffffffffffff1673ffffffffffffffffffffffffffffffffffffffff16815260200160018201548152602001600282015481525050905060008090505b60016003805490500381101561146457600360018201815481106113b057fe5b9060005260206000209060030201600382815481106113cb57fe5b90600052602060002090600302016000820160009054906101000a900473ffffffffffffffffffffffffffffffffffffffff168160000160006101000a81548173ffffffffffffffffffffffffffffffffffffffff021916908373ffffffffffffffffffffffffffffffffffffffff16021790555060018201548160010155600282015481600201559050508080600101915050611390565b5060036001600380549050038154811061147a57fe5b9060005260206000209060030201600080820160006101000a81549073ffffffffffffffffffffffffffffffffffffffff021916905560018201600090556002820160009055505060038054806114cd57fe5b6001900381819060005260206000209060030201600080820160006101000a81549073ffffffffffffffffffffffffffffffffffffffff021916905560018201600090556002820160009055505090555b5b5b80915050919050565b600080905060008090505b600080549050811015611571576000818154811061154e57fe5b906000526020600020906003020160010154820391508080600101915050611534565b506006548101905060008090505b60008054905081101561165f5760026000828154811061159b57fe5b9060005260206000209060030201908060018154018082558091505090600182039060005260206000209060030201600090919290919091506000820160009054906101000a900473ffffffffffffffffffffffffffffffffffffffff168160000160006101000a81548173ffffffffffffffffffffffffffffffffffffffff021916908373ffffffffffffffffffffffffffffffffffffffff1602179055506001820154816001015560028201548160020155505050808060010191505061157f565b506116ab6040518060400160405280600481526020017f6465736300000000000000000000000000000000000000000000000000000000815250600260006001600280549050036127d0565b60008090505b600180549050811015611791576003600182815481106116cd57fe5b9060005260206000209060030201908060018154018082558091505090600182039060005260206000209060030201600090919290919091506000820160009054906101000a900473ffffffffffffffffffffffffffffffffffffffff168160000160006101000a81548173ffffffffffffffffffffffffffffffffffffffff021916908373ffffffffffffffffffffffffffffffffffffffff160217905550600182015481600101556002820154816002015550505080806001019150506116b1565b506117dd6040518060400160405280600481526020017f6465736300000000000000000000000000000000000000000000000000000000815250600360006001600380549050036127d0565b6117e5612cca565b6117ed612cca565b6000809050600080905060006001905061183b6040518060400160405280600581526020017f6275796572000000000000000000000000000000000000000000000000000000815250610ed1565b9350600084604001511415801561185757506000846020015114155b15611ee05761189a6040518060400160405280600681526020017f73656c6c65720000000000000000000000000000000000000000000000000000815250610ed1565b94505b6000856020015187011215611944578460200151860195506118ff85600001516040518060400160405280600681526020017f73656c6c6572000000000000000000000000000000000000000000000000000081525087602001516000612ba3565b61193d6040518060400160405280600681526020017f73656c6c65720000000000000000000000000000000000000000000000000000815250610ed1565b945061189d565b858560200181815101915081815250505b600084604001511415801561196f57506000846020015114155b15611edf576000856040015114801561198c575060008560200151145b15611a36576119e984600001516040518060400160405280600581526020017f6275796572000000000000000000000000000000000000000000000000000000815250866020015185016005548860200151028701600003612ba3565b6000915060009250611a2f6040518060400160405280600581526020017f6275796572000000000000000000000000000000000000000000000000000000815250610ed1565b9350611eda565b836020015185602001511215611b8b578015611abf57611aa685600001516040518060400160405280600681526020017f73656c6c657200000000000000000000000000000000000000000000000000008152508760200151850160000388604001518960200151028701612ba3565b8460200151915084604001518560200151029250611b2e565b611b1585600001516040518060400160405280600681526020017f73656c6c6572000000000000000000000000000000000000000000000000000081525087602001516000038860400151896020015102612ba3565b8460200151820191508460400151856020015102830192505b600090508460200151846020018181510391508181525050611b846040518060400160405280600681526020017f73656c6c65720000000000000000000000000000000000000000000000000000815250610ed1565b9450611ed9565b836020015185602001511315611cdf5780611c1357611bfa84600001516040518060400160405280600581526020017f62757965720000000000000000000000000000000000000000000000000000008152508660200151850188604001518860200151028701600003612ba3565b8360200151915084604001518460200151029250611c82565b611c6984600001516040518060400160405280600581526020017f627579657200000000000000000000000000000000000000000000000000000081525086602001518860400151886020015102600003612ba3565b8360200151820191508460400151846020015102830192505b600190508360200151856020018181510391508181525050611cd86040518060400160405280600581526020017f6275796572000000000000000000000000000000000000000000000000000000815250610ed1565b9350611ed8565b8015611d9a57611d3f85600001516040518060400160405280600681526020017f73656c6c657200000000000000000000000000000000000000000000000000008152508760200151850160000388604001518960200151028701612ba3565b611d9584600001516040518060400160405280600581526020017f627579657200000000000000000000000000000000000000000000000000000081525086602001518860400151886020015102600003612ba3565b611e4b565b611df085600001516040518060400160405280600681526020017f73656c6c6572000000000000000000000000000000000000000000000000000081525087602001516000038860400151896020015102612ba3565b611e4a84600001516040518060400160405280600581526020017f62757965720000000000000000000000000000000000000000000000000000008152508660200151850188604001518860200151028701600003612ba3565b5b600190506000915060009250611e956040518060400160405280600681526020017f73656c6c65720000000000000000000000000000000000000000000000000000815250610ed1565b9450611ed56040518060400160405280600581526020017f6275796572000000000000000000000000000000000000000000000000000000815250610ed1565b93505b5b5b611955565b5b505050505050565b60606001805480602002602001604051908101604052809291908181526020016000905b82821015611fa857838290600052602060002090600302016040518060600160405290816000820160009054906101000a900473ffffffffffffffffffffffffffffffffffffffff1673ffffffffffffffffffffffffffffffffffffffff1673ffffffffffffffffffffffffffffffffffffffff1681526020016001820154815260200160028201548152505081526020019060010190611f0c565b50505050905090565b60008060008090505b60018054905081101561208e573373ffffffffffffffffffffffffffffffffffffffff1660018281548110611feb57fe5b906000526020600020906003020160000160009054906101000a900473ffffffffffffffffffffffffffffffffffffffff1673ffffffffffffffffffffffffffffffffffffffff161415612081576001818154811061204657fe5b9060005260206000209060030201600101546001828154811061206557fe5b9060005260206000209060030201600201549250925050612090565b8080600101915050611fba565b505b9091565b6000600654905090565b600081815481106120ab57fe5b90600052602060002090600302016000915090508060000160009054906101000a900473ffffffffffffffffffffffffffffffffffffffff16908060010154908060020154905083565b6000806121029190612d01565b600160006121109190612d01565b6004600061211e9190612d25565b565b60608061216d6040518060400160405280600381526020017f61736300000000000000000000000000000000000000000000000000000000008152506000806001600080549050036127d0565b6121b76040518060400160405280600381526020017f61736300000000000000000000000000000000000000000000000000000000008152506001600060018080549050036127d0565b6000600181805480602002602001604051908101604052809291908181526020016000905b8282101561227857838290600052602060002090600302016040518060600160405290816000820160009054906101000a900473ffffffffffffffffffffffffffffffffffffffff1673ffffffffffffffffffffffffffffffffffffffff1673ffffffffffffffffffffffffffffffffffffffff16815260200160018201548152602001600282015481525050815260200190600101906121dc565b50505050915080805480602002602001604051908101604052809291908181526020016000905b8282101561233b57838290600052602060002090600302016040518060600160405290816000820160009054906101000a900473ffffffffffffffffffffffffffffffffffffffff1673ffffffffffffffffffffffffffffffffffffffff1673ffffffffffffffffffffffffffffffffffffffff168152602001600182015481526020016002820154815250508152602001906001019061229f565b505050509050915091509091565b612351612cca565b60008090505b6000805490508110156124375760026000828154811061237357fe5b9060005260206000209060030201908060018154018082558091505090600182039060005260206000209060030201600090919290919091506000820160009054906101000a900473ffffffffffffffffffffffffffffffffffffffff168160000160006101000a81548173ffffffffffffffffffffffffffffffffffffffff021916908373ffffffffffffffffffffffffffffffffffffffff16021790555060018201548160010155600282015481600201555050508080600101915050612357565b5090565b600060068190555061244b612cca565b612453612cca565b6124916040518060400160405280600681526020017f73656c6c65720000000000000000000000000000000000000000000000000000815250610ed1565b915060008260400151141580156124ad57506000826020015114155b15612692576124f06040518060400160405280600581526020017f6275796572000000000000000000000000000000000000000000000000000000815250610ed1565b90505b600081604001511415801561250d57506000816020015114155b8015612520575081604001518160400151125b1561256a576125636040518060400160405280600581526020017f6275796572000000000000000000000000000000000000000000000000000000815250610ed1565b90506124f3565b600080905060008090505b600083604001511415801561258f57506000836020015114155b1561267f5760008460400151141580156125ae57506000846020015114155b80156125c257508260400151846040015113155b156126155783602001518101905061260e6040518060400160405280600681526020017f73656c6c65720000000000000000000000000000000000000000000000000000815250610ed1565b935061267a565b82602001518103905061262a60065482612cb0565b6006819055508260200151820191506126776040518060400160405280600581526020017f6275796572000000000000000000000000000000000000000000000000000000815250610ed1565b92505b612575565b8160066000828254019250508190555050505b5050565b60008060008090505b600080549050811015612773573373ffffffffffffffffffffffffffffffffffffffff16600082815481106126d057fe5b906000526020600020906003020160000160009054906101000a900473ffffffffffffffffffffffffffffffffffffffff1673ffffffffffffffffffffffffffffffffffffffff161415612766576000818154811061272b57fe5b9060005260206000209060030201600101546000828154811061274a57fe5b9060005260206000209060030201600201549250925050612775565b808060010191505061269f565b505b9091565b6001818154811061278657fe5b90600052602060002090600302016000915090508060000160009054906101000a900473ffffffffffffffffffffffffffffffffffffffff16908060010154908060020154905083565b60008290506000829050808214156127e9575050612b9d565b6000856002868603816127f857fe5b0586018154811061280557fe5b90600052602060002090600302016002015490505b818313612b6f576040518060400160405280600381526020017f617363000000000000000000000000000000000000000000000000000000000081525080519060200120878051906020012014156128d8575b8086848154811061287a57fe5b906000526020600020906003020160020154121561289f57828060010193505061286d565b5b8582815481106128ac57fe5b9060005260206000209060030201600201548112156128d3578180600190039250506128a0565b61298c565b6040518060400160405280600481526020017f6465736300000000000000000000000000000000000000000000000000000000815250805190602001208780519060200120141561298b575b8086848154811061293157fe5b9060005260206000209060030201600201541315612956578280600101935050612924565b5b85828154811061296357fe5b90600052602060002090600302016002015481131561298a57818060019003925050612957565b5b5b818313612b6a5761299b612cca565b8684815481106129a757fe5b90600052602060002090600302016040518060600160405290816000820160009054906101000a900473ffffffffffffffffffffffffffffffffffffffff1673ffffffffffffffffffffffffffffffffffffffff1673ffffffffffffffffffffffffffffffffffffffff168152602001600182015481526020016002820154815250509050868381548110612a3857fe5b9060005260206000209060030201878581548110612a5257fe5b90600052602060002090600302016000820160009054906101000a900473ffffffffffffffffffffffffffffffffffffffff168160000160006101000a81548173ffffffffffffffffffffffffffffffffffffffff021916908373ffffffffffffffffffffffffffffffffffffffff160217905550600182015481600101556002820154816002015590505080878481548110612aeb57fe5b906000526020600020906003020160008201518160000160006101000a81548173ffffffffffffffffffffffffffffffffffffffff021916908373ffffffffffffffffffffffffffffffffffffffff16021790555060208201518160010155604082015181600201559050508380600101945050828060019003935050505b61281a565b81851215612b8457612b83878787856127d0565b5b83831215612b9957612b98878785876127d0565b5b5050505b50505050565b612bab612d49565b84816000019073ffffffffffffffffffffffffffffffffffffffff16908173ffffffffffffffffffffffffffffffffffffffff168152505083816020018190525082816040018181525050818160600181815250506004819080600181540180825580915050906001820390600052602060002090600402016000909192909190915060008201518160000160006101000a81548173ffffffffffffffffffffffffffffffffffffffff021916908373ffffffffffffffffffffffffffffffffffffffff1602179055506020820151816001019080519060200190612c91929190612d87565b5060408201518160020155606082015181600301555050505050505050565b600081831315612cc05781612cc2565b825b905092915050565b6040518060600160405280600073ffffffffffffffffffffffffffffffffffffffff16815260200160008152602001600081525090565b5080546000825560030290600052602060002090810190612d229190612e07565b50565b5080546000825560040290600052602060002090810190612d469190612e5d565b50565b6040518060800160405280600073ffffffffffffffffffffffffffffffffffffffff1681526020016060815260200160008152602001600081525090565b828054600181600116156101000203166002900490600052602060002090601f016020900481019282601f10612dc857805160ff1916838001178555612df6565b82800160010185558215612df6579182015b82811115612df5578251825591602001919060010190612dda565b5b509050612e039190612ec3565b5090565b612e5a91905b80821115612e5657600080820160006101000a81549073ffffffffffffffffffffffffffffffffffffffff02191690556001820160009055600282016000905550600301612e0d565b5090565b90565b612ec091905b80821115612ebc57600080820160006101000a81549073ffffffffffffffffffffffffffffffffffffffff0219169055600182016000612ea39190612ee8565b6002820160009055600382016000905550600401612e63565b5090565b90565b612ee591905b80821115612ee1576000816000905550600101612ec9565b5090565b90565b50805460018160011615610100020316600290046000825580601f10612f0e5750612f2d565b601f016020900490600052602060002090810190612f2c9190612ec3565b5b50565b600081359050612f3f81613637565b92915050565b600082601f830112612f5657600080fd5b8135612f69612f64826134c7565b61349a565b91508082526020830160208301858383011115612f8557600080fd5b612f908382846135e4565b50505092915050565b600081359050612fa88161364e565b92915050565b600060208284031215612fc057600080fd5b600082013567ffffffffffffffff811115612fda57600080fd5b612fe684828501612f45565b91505092915050565b60008060006060848603121561300457600080fd5b600084013567ffffffffffffffff81111561301e57600080fd5b61302a86828701612f45565b935050602061303b86828701612f30565b925050604061304c86828701612f30565b9150509250925092565b60006020828403121561306857600080fd5b600061307684828501612f99565b91505092915050565b600061308b838361327d565b60608301905092915050565b60006130a383836132bf565b905092915050565b6130b481613592565b82525050565b6130c381613592565b82525050565b60006130d482613513565b6130de818561354e565b93506130e9836134f3565b8060005b8381101561311a578151613101888261307f565b975061310c83613534565b9250506001810190506130ed565b5085935050505092915050565b60006131328261351e565b61313c818561355f565b93508360208202850161314e85613503565b8060005b8581101561318a578484038952815161316b8582613097565b945061317683613541565b925060208a01995050600181019050613152565b50829750879550505050505092915050565b6131a5816135a4565b82525050565b6131b4816135b0565b82525050565b6131c3816135b0565b82525050565b60006131d482613529565b6131de8185613570565b93506131ee8185602086016135f3565b6131f781613626565b840191505092915050565b600061320d82613529565b6132178185613581565b93506132278185602086016135f3565b61323081613626565b840191505092915050565b60608201600082015161325160008501826130ab565b50602082015161326460208501826131ab565b50604082015161327760408501826131ab565b50505050565b60608201600082015161329360008501826130ab565b5060208201516132a660208501826131ab565b5060408201516132b960408501826131ab565b50505050565b60006080830160008301516132d760008601826130ab565b50602083015184820360208601526132ef82826131c9565b915050604083015161330460408601826131ab565b50606083015161331760608601826131ab565b508091505092915050565b600060608201905061333760008301866130ba565b61334460208301856131ba565b61335160408301846131ba565b949350505050565b600060808201905061336e60008301876130ba565b81810360208301526133808186613202565b905061338f60408301856131ba565b61339c60608301846131ba565b95945050505050565b600060208201905081810360008301526133bf81846130c9565b905092915050565b600060408201905081810360008301526133e181856130c9565b905081810360208301526133f581846130c9565b90509392505050565b600060208201905081810360008301526134188184613127565b905092915050565b6000602082019050613435600083018461319c565b92915050565b600060208201905061345060008301846131ba565b92915050565b600060408201905061346b60008301856131ba565b61347860208301846131ba565b9392505050565b6000606082019050613494600083018461323b565b92915050565b6000604051905081810181811067ffffffffffffffff821117156134bd57600080fd5b8060405250919050565b600067ffffffffffffffff8211156134de57600080fd5b601f19601f8301169050602081019050919050565b6000819050602082019050919050565b6000819050602082019050919050565b600081519050919050565b600081519050919050565b600081519050919050565b6000602082019050919050565b6000602082019050919050565b600082825260208201905092915050565b600082825260208201905092915050565b600082825260208201905092915050565b600082825260208201905092915050565b600061359d826135ba565b9050919050565b60008115159050919050565b6000819050919050565b600073ffffffffffffffffffffffffffffffffffffffff82169050919050565b6000819050919050565b82818337600083830152505050565b60005b838110156136115780820151818401526020810190506135f6565b83811115613620576000848401525b50505050565b6000601f19601f8301169050919050565b613640816135b0565b811461364b57600080fd5b50565b613657816135da565b811461366257600080fd5b5056fea365627a7a72315820bf7ed4b9a302613a7039c6e6825e9cfd992dae659d316e6b7b7893f2f6f414f96c6578706572696d656e74616cf564736f6c63430005100040",
  "source": "// SPDX-License-Identifier: MIT\npragma experimental ABIEncoderV2;\npragma solidity >=0.4.21 <8.10.0;\n\nimport \"./Role.sol\";\n\ncontract DoubleAuction is Role {\n    Participant[] public sellers;\n    Participant[] public buyers;\n    Participant[] public Asks;\n    Participant[] public Bids;\n    Result[] public results;\n    int256 gridPrice = 800;\n\n    function joinAuction(\n        string memory _role,\n        int256 _quantity,\n        int256 _price\n    ) public {\n        Participant memory temp;\n        temp.addr = msg.sender;\n        temp.quantity = _quantity;\n        temp.price = _price;\n        if (keccak256(bytes(_role)) == keccak256(bytes(\"seller\"))) {\n            sellers.push(temp);\n        } else if (keccak256(bytes(_role)) == keccak256(bytes(\"buyer\"))) {\n            buyers.push(temp);\n        }\n    }\n\n    function getSellerPerference()\n        public\n        view\n        returns (int256 quantity, int256 price)\n    {\n        for (uint256 i = 0; i < sellers.length; i++) {\n            if (sellers[i].addr == msg.sender) {\n                return (sellers[i].quantity, sellers[i].price);\n            }\n        }\n    }\n\n    function getBuyerPerference()\n        public\n        view\n        returns (int256 quantity, int256 price)\n    {\n        for (uint256 i = 0; i < buyers.length; i++) {\n            if (buyers[i].addr == msg.sender) {\n                return (buyers[i].quantity, buyers[i].price);\n            }\n        }\n    }\n\n    function getSellerList() public view returns (Participant[] memory) {\n        return sellers;\n    }\n\n    function getSeller() public returns (Participant memory) {\n        for (uint256 i = 0; i < sellers.length; i++) {\n            Asks.push(sellers[i]);\n        }\n    }\n\n    function getBuyerList() public view returns (Participant[] memory) {\n        return buyers;\n    }\n\n    function getAsksList() public view returns (Participant[] memory) {\n        return Asks;\n    }\n\n    function getBidsList() public view returns (Participant[] memory) {\n        return Bids;\n    }\n\n    function sortingAlgorithm()\n        public\n        returns (Participant[] memory, Participant[] memory)\n    {\n        quickSort(\"asc\", sellers, 0, int256(sellers.length - 1));\n        quickSort(\"asc\", buyers, 0, int256(buyers.length - 1));\n\n        return (sellers, buyers);\n    }\n\n    function setAsksAndBidsList() public {\n        for (uint256 i = 0; i < sellers.length; i++) {\n            Asks.push(sellers[i]);\n        }\n\n        quickSort(\"asc\", Asks, 0, int256(Asks.length - 1));\n        // for (uint256 i = 0; i < Asks.length; i++) {\n        //     Asks[i].price = 0 - Asks[i].price;\n        // }\n\n        for (uint256 i = 0; i < buyers.length; i++) {\n            Bids.push(buyers[i]);\n        }\n        quickSort(\"asc\", Bids, 0, int256(Bids.length - 1));\n    }\n\n    function quickSort(\n        string memory _mode,\n        Participant[] storage arr,\n        int256 left,\n        int256 right\n    ) internal {\n        int256 i = left;\n        int256 j = right;\n        if (i == j) return;\n        int256 pivot = arr[uint256(left + (right - left) / 2)].price;\n        while (i <= j) {\n            if (keccak256(bytes(_mode)) == keccak256(bytes(\"asc\"))) {\n                while (arr[uint256(i)].price < pivot) i++;\n                while (pivot < arr[uint256(j)].price) j--;\n            } else if (keccak256(bytes(_mode)) == keccak256(bytes(\"desc\"))) {\n                while (arr[uint256(i)].price > pivot) i++;\n                while (pivot > arr[uint256(j)].price) j--;\n            }\n            if (i <= j) {\n                Participant memory temp;\n                temp = arr[uint256(i)];\n                arr[uint256(i)] = arr[uint256(j)];\n                arr[uint256(j)] = temp;\n\n                i++;\n                j--;\n            }\n        }\n        if (left < j) quickSort(_mode, arr, left, j);\n        if (i < right) quickSort(_mode, arr, i, right);\n    }\n\n    int256 qMin;\n\n    function getQFunction() public {\n        qMin = 0;\n        Participant memory a;\n        Participant memory b;\n\n        a = poll(\"seller\");\n        if (a.price != 0 && a.quantity != 0) {\n            b = poll(\"buyer\");\n\n            while (b.price != 0 && b.quantity != 0 && b.price < a.price) {\n                b = poll(\"buyer\");\n            }\n\n            // qd: Will Be The Demand at Price 0\n            int256 qd = 0;\n            // q: Current Horizontal Distance Between The Flipped Supply and The Demand Curves (Minus The Final Value of qd, Which is Unknow at Present).\n            int256 q = 0;\n\n            while (b.price != 0 && b.quantity != 0) {\n                if (a.price != 0 && a.quantity != 0 && a.price <= b.price) {\n                    q += a.quantity;\n                    a = poll(\"seller\");\n                } else {\n                    q -= b.quantity;\n                    qMin = min(qMin, q);\n                    qd += b.quantity;\n                    b = poll(\"buyer\");\n                }\n            }\n\n            qMin += qd;\n        }\n    }\n\n    function getQmv() public view returns (int256) {\n        return qMin;\n    }\n\n    function getShift() public {\n        int256 sellersQuantity = 0;\n        for (uint256 i = 0; i < sellers.length; i++) {\n            sellersQuantity -= sellers[i].quantity;\n        }\n        sellersQuantity += qMin;\n\n        // Match\n        for (uint256 i = 0; i < sellers.length; i++) {\n            Asks.push(sellers[i]);\n        }\n\n        quickSort(\"desc\", Asks, 0, int256(Asks.length - 1));\n\n        for (uint256 i = 0; i < buyers.length; i++) {\n            Bids.push(buyers[i]);\n        }\n        quickSort(\"desc\", Bids, 0, int256(Bids.length - 1));\n\n        Participant memory a;\n        Participant memory b;\n        int256 tempBalance = 0;\n        int256 tempQuantity = 0;\n        bool temp4seller = true;\n\n        b = poll(\"buyer\");\n        if (b.price != 0 && b.quantity != 0) {\n            a = poll(\"seller\");\n\n            while (sellersQuantity + a.quantity < 0) {\n                sellersQuantity += a.quantity;\n                pushResult(a.addr, \"seller\", a.quantity, 0);\n                a = poll(\"seller\");\n            }\n\n            a.quantity += sellersQuantity;\n\n            while (b.price != 0 && b.quantity != 0) {\n                if (a.price == 0 && a.quantity == 0) {\n                    pushResult(\n                        b.addr,\n                        \"buyer\",\n                        tempQuantity + b.quantity,\n                        0 - (tempBalance + b.quantity * gridPrice)\n                    );\n                    tempQuantity = 0;\n                    tempBalance = 0;\n                    b = poll(\"buyer\");\n                } else if (a.quantity < b.quantity) {\n                    if (temp4seller) {\n                        pushResult(\n                            a.addr,\n                            \"seller\",\n                            0 - (tempQuantity + a.quantity),\n                            tempBalance + a.quantity * a.price\n                        );\n                        tempQuantity = a.quantity;\n                        tempBalance = a.quantity * a.price;\n                    } else {\n                        pushResult(\n                            a.addr,\n                            \"seller\",\n                            0 - a.quantity,\n                            a.quantity * a.price\n                        );\n                        tempQuantity += a.quantity;\n                        tempBalance += a.quantity * a.price;\n                    }\n                    temp4seller = false;\n                    b.quantity -= a.quantity;\n                    a = poll(\"seller\");\n                } else if (a.quantity > b.quantity) {\n                    if (!temp4seller) {\n                        pushResult(\n                            b.addr,\n                            \"buyer\",\n                            tempQuantity + b.quantity,\n                            0 - (tempBalance + b.quantity * a.price)\n                        );\n                        tempQuantity = b.quantity;\n                        tempBalance = b.quantity * a.price;\n                    } else {\n                        pushResult(\n                            b.addr,\n                            \"buyer\",\n                            b.quantity,\n                            0 - (b.quantity * a.price)\n                        );\n                        tempQuantity += b.quantity;\n                        tempBalance += b.quantity * a.price;\n                    }\n                    temp4seller = true;\n                    a.quantity -= b.quantity;\n                    b = poll(\"buyer\");\n                } else {\n                    if (temp4seller) {\n                        pushResult(\n                            a.addr,\n                            \"seller\",\n                            0 - (tempQuantity + a.quantity),\n                            tempBalance + a.quantity * a.price\n                        );\n                        pushResult(\n                            b.addr,\n                            \"buyer\",\n                            b.quantity,\n                            0 - (b.quantity * a.price)\n                        );\n                    } else {\n                        pushResult(\n                            a.addr,\n                            \"seller\",\n                            0 - a.quantity,\n                            a.quantity * a.price\n                        );\n                        pushResult(\n                            b.addr,\n                            \"buyer\",\n                            tempQuantity + b.quantity,\n                            0 - (tempBalance + b.quantity * a.price)\n                        );\n                    }\n                    temp4seller = true;\n                    tempQuantity = 0;\n                    tempBalance = 0;\n                    a = poll(\"seller\");\n                    b = poll(\"buyer\");\n                }\n            }\n        }\n    }\n\n    function getResults() public view returns (Result[] memory) {\n        return results;\n    }\n\n    function pushResult(\n        address addr,\n        string memory role,\n        int256 quantity,\n        int256 balance\n    ) internal {\n        Result memory result;\n\n        result.addr = addr;\n        result.role = role;\n        result.quantity = quantity;\n        result.balance = balance;\n        results.push(result);\n    }\n\n    function reset() public {\n        delete sellers;\n        delete buyers;\n        delete results;\n    }\n\n    function isEmpty(string memory _role) public view returns (bool) {\n        if (keccak256(bytes(_role)) == keccak256(bytes(\"seller\"))) {\n            if (Asks.length == 0) {\n                return true;\n            } else {\n                return false;\n            }\n        } else if (keccak256(bytes(_role)) == keccak256(bytes(\"buyer\"))) {\n            if (Bids.length == 0) {\n                return true;\n            } else {\n                return false;\n            }\n        }\n    }\n\n    function poll(string memory _role) public returns (Participant memory) {\n        Participant memory temp;\n        if (keccak256(bytes(_role)) == keccak256(bytes(\"seller\"))) {\n            if (isEmpty(\"seller\")) {\n                temp.addr = 0x111122223333444455556666777788889999aAaa;\n                temp.price = 0;\n                temp.quantity = 0;\n            } else {\n                temp = Asks[0];\n                for (uint256 i = 0; i < Asks.length - 1; i++) {\n                    Asks[i] = Asks[i + 1];\n                }\n                delete Asks[Asks.length - 1];\n                Asks.pop();\n            }\n        } else if (keccak256(bytes(_role)) == keccak256(bytes(\"buyer\"))) {\n            if (isEmpty(\"buyer\")) {\n                temp.addr = 0x111122223333444455556666777788889999aAaa;\n                temp.price = 0;\n                temp.quantity = 0;\n            } else {\n                temp = Bids[0];\n                for (uint256 i = 0; i < Bids.length - 1; i++) {\n                    Bids[i] = Bids[i + 1];\n                }\n                delete Bids[Bids.length - 1];\n                Bids.pop();\n            }\n        }\n\n        return temp;\n    }\n\n    function min(int256 a, int256 b) internal pure returns (int256) {\n        return a <= b ? a : b;\n    }\n}\n",
  "sourcePath": "/Users/kankuni/Documents/DoubleAuctionSolidity/contracts/DoubleAuction.sol",
  "compiler": {
    "name": "solc",
    "version": "0.5.16+commit.9c3226ce.Emscripten.clang"
  },
  "schemaVersion": "3.4.6",
  "updatedAt": "2022-04-25T06:54:27.669Z",
  "networkType": "ethereum",
  "devdoc": {
    "methods": {}
  },
  "userdoc": {
    "methods": {}
  }
}